{
  "contractName": "PhotoMarketplace",
  "abi": [
    {
      "anonymous": false,
      "inputs": [
        {
          "indexed": false,
          "internalType": "uint256",
          "name": "_photoID",
          "type": "uint256"
        }
      ],
      "name": "AddNewPhoto",
      "type": "event"
    },
    {
      "anonymous": false,
      "inputs": [
        {
          "indexed": false,
          "internalType": "uint256",
          "name": "_reqID",
          "type": "uint256"
        }
      ],
      "name": "AddNewPhotographyRequest",
      "type": "event"
    },
    {
      "anonymous": false,
      "inputs": [],
      "name": "DenialSubmitRequest",
      "type": "event"
    },
    {
      "anonymous": false,
      "inputs": [
        {
          "indexed": false,
          "internalType": "string",
          "name": "_email",
          "type": "string"
        }
      ],
      "name": "failedSignUp",
      "type": "event"
    },
    {
      "anonymous": false,
      "inputs": [
        {
          "indexed": false,
          "internalType": "string",
          "name": "_companyname",
          "type": "string"
        }
      ],
      "name": "newBusinessSignUp",
      "type": "event"
    },
    {
      "anonymous": false,
      "inputs": [
        {
          "indexed": true,
          "internalType": "address",
          "name": "_useraddress",
          "type": "address"
        },
        {
          "indexed": false,
          "internalType": "bytes32",
          "name": "_userID",
          "type": "bytes32"
        }
      ],
      "name": "newSignUP",
      "type": "event"
    },
    {
      "constant": true,
      "inputs": [
        {
          "internalType": "address",
          "name": "",
          "type": "address"
        }
      ],
      "name": "businessInfo",
      "outputs": [
        {
          "internalType": "string",
          "name": "companyName",
          "type": "string"
        },
        {
          "internalType": "string",
          "name": "companyDescription",
          "type": "string"
        }
      ],
      "payable": false,
      "stateMutability": "view",
      "type": "function"
    },
    {
      "constant": false,
      "inputs": [
        {
          "internalType": "string",
          "name": "_companyname",
          "type": "string"
        },
        {
          "internalType": "string",
          "name": "_companydescription",
          "type": "string"
        }
      ],
      "name": "businessSignUp",
      "outputs": [],
      "payable": false,
      "stateMutability": "nonpayable",
      "type": "function"
    },
    {
      "constant": true,
      "inputs": [],
      "name": "photoCounter",
      "outputs": [
        {
          "internalType": "uint256",
          "name": "",
          "type": "uint256"
        }
      ],
      "payable": false,
      "stateMutability": "view",
      "type": "function"
    },
    {
      "constant": true,
      "inputs": [],
      "name": "photographyRequestCounter",
      "outputs": [
        {
          "internalType": "uint256",
          "name": "",
          "type": "uint256"
        }
      ],
      "payable": false,
      "stateMutability": "view",
      "type": "function"
    },
    {
      "constant": true,
      "inputs": [
        {
          "internalType": "uint256",
          "name": "",
          "type": "uint256"
        }
      ],
      "name": "photographyRequests",
      "outputs": [
        {
          "internalType": "address",
          "name": "requestMaker",
          "type": "address"
        },
        {
          "internalType": "string",
          "name": "logo",
          "type": "string"
        },
        {
          "internalType": "string",
          "name": "description",
          "type": "string"
        },
        {
          "internalType": "uint256",
          "name": "price",
          "type": "uint256"
        }
      ],
      "payable": false,
      "stateMutability": "view",
      "type": "function"
    },
    {
      "constant": true,
      "inputs": [
        {
          "internalType": "uint256",
          "name": "",
          "type": "uint256"
        }
      ],
      "name": "photos",
      "outputs": [
        {
          "internalType": "string",
          "name": "photoURL",
          "type": "string"
        },
        {
          "internalType": "uint256",
          "name": "photoID",
          "type": "uint256"
        },
        {
          "internalType": "string",
          "name": "photoname",
          "type": "string"
        },
        {
          "internalType": "string",
          "name": "photoDescription",
          "type": "string"
        },
        {
          "internalType": "address",
          "name": "photoOwner",
          "type": "address"
        },
        {
          "internalType": "uint256",
          "name": "photoPrice",
          "type": "uint256"
        }
      ],
      "payable": false,
      "stateMutability": "view",
      "type": "function"
    },
    {
      "constant": false,
      "inputs": [
        {
          "internalType": "string",
          "name": "_name",
          "type": "string"
        },
        {
          "internalType": "string",
          "name": "_email",
          "type": "string"
        },
        {
          "internalType": "address",
          "name": "_wallet",
          "type": "address"
        }
      ],
      "name": "userSignUp",
      "outputs": [],
      "payable": false,
      "stateMutability": "nonpayable",
      "type": "function"
    },
    {
      "constant": true,
      "inputs": [
        {
          "internalType": "address",
          "name": "",
          "type": "address"
        }
      ],
      "name": "users",
      "outputs": [
        {
          "internalType": "string",
          "name": "userName",
          "type": "string"
        },
        {
          "internalType": "string",
          "name": "userEmail",
          "type": "string"
        },
        {
          "internalType": "bytes32",
          "name": "userID",
          "type": "bytes32"
        },
        {
          "internalType": "address",
          "name": "userWalletAddress",
          "type": "address"
        },
        {
          "internalType": "bool",
          "name": "activateAccount",
          "type": "bool"
        },
        {
          "internalType": "bool",
          "name": "businessAccount",
          "type": "bool"
        }
      ],
      "payable": false,
      "stateMutability": "view",
      "type": "function"
    },
    {
      "constant": true,
      "inputs": [
        {
          "internalType": "address",
          "name": "",
          "type": "address"
        },
        {
          "internalType": "uint256",
          "name": "",
          "type": "uint256"
        }
      ],
      "name": "usersPhotos",
      "outputs": [
        {
          "internalType": "uint256",
          "name": "",
          "type": "uint256"
        }
      ],
      "payable": false,
      "stateMutability": "view",
      "type": "function"
    },
    {
      "constant": false,
      "inputs": [
        {
          "internalType": "string",
          "name": "_photourl",
          "type": "string"
        },
        {
          "internalType": "string",
          "name": "_photoname",
          "type": "string"
        },
        {
          "internalType": "string",
          "name": "_photoDesc",
          "type": "string"
        },
        {
          "internalType": "uint256",
          "name": "_photoPrice",
          "type": "uint256"
        }
      ],
      "name": "addPhoto",
      "outputs": [],
      "payable": false,
      "stateMutability": "nonpayable",
      "type": "function"
    },
    {
      "constant": false,
      "inputs": [
        {
          "internalType": "bytes32",
          "name": "_photoId",
          "type": "bytes32"
        }
      ],
      "name": "deletePhoto",
      "outputs": [],
      "payable": false,
      "stateMutability": "nonpayable",
      "type": "function"
    },
    {
      "constant": false,
      "inputs": [
        {
          "internalType": "string",
          "name": "_logo",
          "type": "string"
        },
        {
          "internalType": "string",
          "name": "_desc",
          "type": "string"
        },
        {
          "internalType": "uint256",
          "name": "_price",
          "type": "uint256"
        }
      ],
      "name": "addPhotographyRequest",
      "outputs": [],
      "payable": false,
      "stateMutability": "nonpayable",
      "type": "function"
    },
    {
      "constant": false,
      "inputs": [
        {
          "internalType": "bytes32",
          "name": "_photoID",
          "type": "bytes32"
        }
      ],
      "name": "checkBuyerBalance",
      "outputs": [],
      "payable": false,
      "stateMutability": "nonpayable",
      "type": "function"
    },
    {
      "constant": false,
      "inputs": [
        {
          "internalType": "bytes32",
          "name": "_photoID",
          "type": "bytes32"
        },
        {
          "internalType": "address",
          "name": "_newOwner",
          "type": "address"
        }
      ],
      "name": "sellPhoto",
      "outputs": [],
      "payable": false,
      "stateMutability": "nonpayable",
      "type": "function"
    }
  ],
  "bytecode": "0x608060405234801561001057600080fd5b50611dbc806100206000396000f3fe608060405234801561001057600080fd5b50600436106100ea5760003560e01c806372a76b1d1161008c578063a87430ba11610066578063a87430ba14610a44578063af2a5d6f14610bbd578063b53e082414610d7d578063fe245ddb14610dcb576100ea565b806372a76b1d1461076d57806381093fff146108c957806384132866146108f7576100ea565b80634a919ae8116100c85780634a919ae8146105a65780635728526b146105c45780635d7b499c146106265780636a0b05ea14610644576100ea565b80630ef55c81146100ef57806328d9798414610241578063495c02bf14610434575b600080fd5b61023f6004803603604081101561010557600080fd5b810190808035906020019064010000000081111561012257600080fd5b82018360208201111561013457600080fd5b8035906020019184600183028401116401000000008311171561015657600080fd5b91908080601f016020809104026020016040519081016040528093929190818152602001838380828437600081840152601f19601f820116905080830192505050505050509192919290803590602001906401000000008111156101b957600080fd5b8201836020820111156101cb57600080fd5b803590602001918460018302840111640100000000831117156101ed57600080fd5b91908080601f016020809104026020016040519081016040528093929190818152602001838380828437600081840152601f19601f820116905080830192505050505050509192919290505050610df9565b005b6104326004803603608081101561025757600080fd5b810190808035906020019064010000000081111561027457600080fd5b82018360208201111561028657600080fd5b803590602001918460018302840111640100000000831117156102a857600080fd5b91908080601f016020809104026020016040519081016040528093929190818152602001838380828437600081840152601f19601f8201169050808301925050505050505091929192908035906020019064010000000081111561030b57600080fd5b82018360208201111561031d57600080fd5b8035906020019184600183028401116401000000008311171561033f57600080fd5b91908080601f016020809104026020016040519081016040528093929190818152602001838380828437600081840152601f19601f820116905080830192505050505050509192919290803590602001906401000000008111156103a257600080fd5b8201836020820111156103b457600080fd5b803590602001918460018302840111640100000000831117156103d657600080fd5b91908080601f016020809104026020016040519081016040528093929190818152602001838380828437600081840152601f19601f82011690508083019250505050505050919291929080359060200190929190505050610fdc565b005b6105a46004803603606081101561044a57600080fd5b810190808035906020019064010000000081111561046757600080fd5b82018360208201111561047957600080fd5b8035906020019184600183028401116401000000008311171561049b57600080fd5b91908080601f016020809104026020016040519081016040528093929190818152602001838380828437600081840152601f19601f820116905080830192505050505050509192919290803590602001906401000000008111156104fe57600080fd5b82018360208201111561051057600080fd5b8035906020019184600183028401116401000000008311171561053257600080fd5b91908080601f016020809104026020016040519081016040528093929190818152602001838380828437600081840152601f19601f820116905080830192505050505050509192919290803573ffffffffffffffffffffffffffffffffffffffff1690602001909291905050506111a6565b005b6105ae6114d7565b6040518082815260200191505060405180910390f35b610610600480360360408110156105da57600080fd5b81019080803573ffffffffffffffffffffffffffffffffffffffff169060200190929190803590602001909291905050506114dd565b6040518082815260200191505060405180910390f35b61062e61150b565b6040518082815260200191505060405180910390f35b6106866004803603602081101561065a57600080fd5b81019080803573ffffffffffffffffffffffffffffffffffffffff169060200190929190505050611511565b604051808060200180602001838103835285818151815260200191508051906020019080838360005b838110156106ca5780820151818401526020810190506106af565b50505050905090810190601f1680156106f75780820380516001836020036101000a031916815260200191505b50838103825284818151815260200191508051906020019080838360005b83811015610730578082015181840152602081019050610715565b50505050905090810190601f16801561075d5780820380516001836020036101000a031916815260200191505b5094505050505060405180910390f35b6108c76004803603606081101561078357600080fd5b81019080803590602001906401000000008111156107a057600080fd5b8201836020820111156107b257600080fd5b803590602001918460018302840111640100000000831117156107d457600080fd5b91908080601f016020809104026020016040519081016040528093929190818152602001838380828437600081840152601f19601f8201169050808301925050505050505091929192908035906020019064010000000081111561083757600080fd5b82018360208201111561084957600080fd5b8035906020019184600183028401116401000000008311171561086b57600080fd5b91908080601f016020809104026020016040519081016040528093929190818152602001838380828437600081840152601f19601f82011690508083019250505050505050919291929080359060200190929190505050611665565b005b6108f5600480360360208110156108df57600080fd5b810190808035906020019092919050505061178e565b005b6109236004803603602081101561090d57600080fd5b8101908080359060200190929190505050611791565b604051808573ffffffffffffffffffffffffffffffffffffffff1673ffffffffffffffffffffffffffffffffffffffff1681526020018060200180602001848152602001838103835286818151815260200191508051906020019080838360005b8381101561099f578082015181840152602081019050610984565b50505050905090810190601f1680156109cc5780820380516001836020036101000a031916815260200191505b50838103825285818151815260200191508051906020019080838360005b83811015610a055780820151818401526020810190506109ea565b50505050905090810190601f168015610a325780820380516001836020036101000a031916815260200191505b50965050505050505060405180910390f35b610a8660048036036020811015610a5a57600080fd5b81019080803573ffffffffffffffffffffffffffffffffffffffff169060200190929190505050611911565b6040518080602001806020018781526020018673ffffffffffffffffffffffffffffffffffffffff1673ffffffffffffffffffffffffffffffffffffffff1681526020018515151515815260200184151515158152602001838103835289818151815260200191508051906020019080838360005b83811015610b16578082015181840152602081019050610afb565b50505050905090810190601f168015610b435780820380516001836020036101000a031916815260200191505b50838103825288818151815260200191508051906020019080838360005b83811015610b7c578082015181840152602081019050610b61565b50505050905090810190601f168015610ba95780820380516001836020036101000a031916815260200191505b509850505050505050505060405180910390f35b610be960048036036020811015610bd357600080fd5b8101908080359060200190929190505050611ab7565b604051808060200187815260200180602001806020018673ffffffffffffffffffffffffffffffffffffffff1673ffffffffffffffffffffffffffffffffffffffff16815260200185815260200184810384528a818151815260200191508051906020019080838360005b83811015610c6f578082015181840152602081019050610c54565b50505050905090810190601f168015610c9c5780820380516001836020036101000a031916815260200191505b50848103835288818151815260200191508051906020019080838360005b83811015610cd5578082015181840152602081019050610cba565b50505050905090810190601f168015610d025780820380516001836020036101000a031916815260200191505b50848103825287818151815260200191508051906020019080838360005b83811015610d3b578082015181840152602081019050610d20565b50505050905090810190601f168015610d685780820380516001836020036101000a031916815260200191505b50995050505050505050505060405180910390f35b610dc960048036036040811015610d9357600080fd5b8101908080359060200190929190803573ffffffffffffffffffffffffffffffffffffffff169060200190929190505050611cdb565b005b610df760048036036020811015610de157600080fd5b8101908080359060200190929190505050611cdf565b005b600160003373ffffffffffffffffffffffffffffffffffffffff1673ffffffffffffffffffffffffffffffffffffffff16815260200190815260200160002060030160149054906101000a900460ff16610e5257600080fd5b60018060003373ffffffffffffffffffffffffffffffffffffffff1673ffffffffffffffffffffffffffffffffffffffff16815260200190815260200160002060030160156101000a81548160ff0219169083151502179055506040518060400160405280838152602001828152506000803373ffffffffffffffffffffffffffffffffffffffff1673ffffffffffffffffffffffffffffffffffffffff1681526020019081526020016000206000820151816000019080519060200190610f1b929190611ce2565b506020820151816001019080519060200190610f38929190611ce2565b509050507f11d5ef29695a71b30dac4c57722f8d9d582e1730c597d48447909758a23bbfc1826040518080602001828103825283818151815260200191508051906020019080838360005b83811015610f9e578082015181840152602081019050610f83565b50505050905090810190601f168015610fcb5780820380516001836020036101000a031916815260200191505b509250505060405180910390a15050565b60016002600082825401925050819055506040518060c0016040528085815260200160025481526020018481526020018381526020013373ffffffffffffffffffffffffffffffffffffffff168152602001828152506004600060025481526020019081526020016000206000820151816000019080519060200190611063929190611ce2565b5060208201518160010155604082015181600201908051906020019061108a929190611ce2565b5060608201518160030190805190602001906110a7929190611ce2565b5060808201518160040160006101000a81548173ffffffffffffffffffffffffffffffffffffffff021916908373ffffffffffffffffffffffffffffffffffffffff16021790555060a08201518160050155905050600660003373ffffffffffffffffffffffffffffffffffffffff1673ffffffffffffffffffffffffffffffffffffffff16815260200190815260200160002060025490806001815401808255809150509060018203906000526020600020016000909192909190915055507f605e4515671e02c2a40a9e48da7142fec5197223374bebde0c64e7e1bbe46f216002546040518082815260200191505060405180910390a150505050565b600160003373ffffffffffffffffffffffffffffffffffffffff1673ffffffffffffffffffffffffffffffffffffffff16815260200190815260200160002060030160149054906101000a900460ff161561129c577f3e6076325b72438d30348a8d7c4a035f740b38eca622ac468472f1bfffba7aee826040518080602001828103825283818151815260200191508051906020019080838360005b8381101561125d578082015181840152602081019050611242565b50505050905090810190601f16801561128a5780820380516001836020036101000a031916815260200191505b509250505060405180910390a16114d2565b6000826040516020018080602001828103825283818151815260200191508051906020019080838360005b838110156112e25780820151818401526020810190506112c7565b50505050905090810190601f16801561130f5780820380516001836020036101000a031916815260200191505b50925050506040516020818303038152906040528051906020012090506040518060c001604052808581526020018481526020018281526020018373ffffffffffffffffffffffffffffffffffffffff16815260200160011515815260200160001515815250600160008473ffffffffffffffffffffffffffffffffffffffff1673ffffffffffffffffffffffffffffffffffffffff16815260200190815260200160002060008201518160000190805190602001906113d0929190611ce2565b5060208201518160010190805190602001906113ed929190611ce2565b506040820151816002015560608201518160030160006101000a81548173ffffffffffffffffffffffffffffffffffffffff021916908373ffffffffffffffffffffffffffffffffffffffff16021790555060808201518160030160146101000a81548160ff02191690831515021790555060a08201518160030160156101000a81548160ff0219169083151502179055509050508173ffffffffffffffffffffffffffffffffffffffff167f049b92fc8b96ede80f3a01762f21996d583b9662aeff50d4cc9ce03a08d1ec81826040518082815260200191505060405180910390a2505b505050565b60025481565b600660205281600052604060002081815481106114f657fe5b90600052602060002001600091509150505481565b60035481565b6000602052806000526040600020600091509050806000018054600181600116156101000203166002900480601f0160208091040260200160405190810160405280929190818152602001828054600181600116156101000203166002900480156115bd5780601f10611592576101008083540402835291602001916115bd565b820191906000526020600020905b8154815290600101906020018083116115a057829003601f168201915b505050505090806001018054600181600116156101000203166002900480601f01602080910402602001604051908101604052809291908181526020018280546001816001161561010002031660029004801561165b5780601f106116305761010080835404028352916020019161165b565b820191906000526020600020905b81548152906001019060200180831161163e57829003601f168201915b5050505050905082565b600160036000828254019250508190555060405180608001604052803373ffffffffffffffffffffffffffffffffffffffff1681526020018481526020018381526020018281525060056000600354815260200190815260200160002060008201518160000160006101000a81548173ffffffffffffffffffffffffffffffffffffffff021916908373ffffffffffffffffffffffffffffffffffffffff1602179055506020820151816001019080519060200190611725929190611ce2565b506040820151816002019080519060200190611742929190611ce2565b50606082015181600301559050507f36d82aebe6d4981dc58dbcdd67cae5ae3300dd525cbed1c2bfacaf4a3b3af49f6003546040518082815260200191505060405180910390a1505050565b50565b60056020528060005260406000206000915090508060000160009054906101000a900473ffffffffffffffffffffffffffffffffffffffff1690806001018054600181600116156101000203166002900480601f0160208091040260200160405190810160405280929190818152602001828054600181600116156101000203166002900480156118635780601f1061183857610100808354040283529160200191611863565b820191906000526020600020905b81548152906001019060200180831161184657829003601f168201915b505050505090806002018054600181600116156101000203166002900480601f0160208091040260200160405190810160405280929190818152602001828054600181600116156101000203166002900480156119015780601f106118d657610100808354040283529160200191611901565b820191906000526020600020905b8154815290600101906020018083116118e457829003601f168201915b5050505050908060030154905084565b6001602052806000526040600020600091509050806000018054600181600116156101000203166002900480601f0160208091040260200160405190810160405280929190818152602001828054600181600116156101000203166002900480156119bd5780601f10611992576101008083540402835291602001916119bd565b820191906000526020600020905b8154815290600101906020018083116119a057829003601f168201915b505050505090806001018054600181600116156101000203166002900480601f016020809104026020016040519081016040528092919081815260200182805460018160011615610100020316600290048015611a5b5780601f10611a3057610100808354040283529160200191611a5b565b820191906000526020600020905b815481529060010190602001808311611a3e57829003601f168201915b5050505050908060020154908060030160009054906101000a900473ffffffffffffffffffffffffffffffffffffffff16908060030160149054906101000a900460ff16908060030160159054906101000a900460ff16905086565b6004602052806000526040600020600091509050806000018054600181600116156101000203166002900480601f016020809104026020016040519081016040528092919081815260200182805460018160011615610100020316600290048015611b635780601f10611b3857610100808354040283529160200191611b63565b820191906000526020600020905b815481529060010190602001808311611b4657829003601f168201915b505050505090806001015490806002018054600181600116156101000203166002900480601f016020809104026020016040519081016040528092919081815260200182805460018160011615610100020316600290048015611c075780601f10611bdc57610100808354040283529160200191611c07565b820191906000526020600020905b815481529060010190602001808311611bea57829003601f168201915b505050505090806003018054600181600116156101000203166002900480601f016020809104026020016040519081016040528092919081815260200182805460018160011615610100020316600290048015611ca55780601f10611c7a57610100808354040283529160200191611ca5565b820191906000526020600020905b815481529060010190602001808311611c8857829003601f168201915b5050505050908060040160009054906101000a900473ffffffffffffffffffffffffffffffffffffffff16908060050154905086565b5050565b50565b828054600181600116156101000203166002900490600052602060002090601f016020900481019282601f10611d2357805160ff1916838001178555611d51565b82800160010185558215611d51579182015b82811115611d50578251825591602001919060010190611d35565b5b509050611d5e9190611d62565b5090565b611d8491905b80821115611d80576000816000905550600101611d68565b5090565b9056fea265627a7a7231582094e153ccf03f0752fecbbbefcb29bdbcd4cd3d4bb3d291b2617088d0490ae9ae64736f6c63430005100032",
  "source": "pragma solidity ^0.5.0;\n\nimport \"./SafeMath.sol\";\nimport \"./UserManagement.sol\";\n\ncontract PhotoMarketplace is UserManagement{\n    //@notice information about each photo\n    //@dev photo struct keeps the info about each photo\n    struct Photo {\n        string photoURL;\n        uint photoID; //unique ID for each photo\n        string photoname;\n        string photoDescription;\n        address photoOwner;\n        uint photoPrice;\n    }\n    \n    //@notice information about each photography request\n    //@dev photography request by busincess acount holders\n    struct PhotographyRequest {\n        address requestMaker;\n        string logo;// ipfs hash to the logo\n        string description;\n        uint price;\n    }\n    // @notice a counter to keep number of photos\n    // @ an identifier for photos\n    using SafeMath for uint256;\n    uint256 public photoCounter;\n\n    uint256 public photographyRequestCounter;\n\n    //@notice keep track of all photos\n    //@dev mapping from photoID to it's meta data\n    mapping(uint256 => Photo) public photos;\n\n    //@notice keep track of all photography requests\n    //@dev dynamic array to keep track of photoshooting requests\n    mapping(uint256 => PhotographyRequest) public photographyRequests;\n\n    // @notice photo album of each user\n    // @notice keeps an array of photoes belong to each user\n    mapping(address => uint256[]) public usersPhotos; \n\n    // // @notice keeps who owns which photo\n    // // @notice keeps a mapping between photoID and address of it's owner\n    // mapping (uint => address) public photoOwner;\n\n    event AddNewPhoto(uint256 _photoID);\n    event DenialSubmitRequest();\n    event AddNewPhotographyRequest(uint256 _reqID);\n\n    function addPhoto(string memory _photourl, string memory _photoname, string memory _photoDesc, uint _photoPrice)\n    public \n    {\n        photoCounter += 1;\n        photos[photoCounter] = Photo(_photourl, photoCounter, _photoname, _photoDesc, msg.sender ,_photoPrice);\n       // photoOwner[photoCounter]= msg.sender;\n        usersPhotos[msg.sender].push(photoCounter);\n        emit AddNewPhoto(photoCounter);\n       \n       \n    }\n\n    function deletePhoto(bytes32 _photoId)\n    public \n    {\n\n    }\n\n    //@notice business users add new photo request and the price they are willing to pay\n    //@dev this function let business users to add they photography requests\n    function addPhotographyRequest(string memory _logo, string memory _desc, uint _price)\n    public\n    {\n        photographyRequestCounter += 1;\n\n        photographyRequests[photographyRequestCounter] = PhotographyRequest(msg.sender, _logo, _desc, _price);\n        \n        emit AddNewPhotographyRequest(photographyRequestCounter);\n\n    }\n\n    function checkBuyerBalance(bytes32 _photoID)\n    public\n    {\n        \n    }\n\n    //@notice sell photos\n    //@dev sell photo  = change the owner of a photo to a new address\n    function sellPhoto(bytes32 _photoID, address _newOwner)\n    public\n    {\n\n    }\n}",
  "sourcePath": "/home/at/phD/projects/Blockchain/projects/tara/contracts/PhotoMarketplace.sol",
  "compiler": {
    "name": "solc",
    "version": "0.5.16+commit.9c3226ce.Emscripten.clang"
  },
  "schemaVersion": "3.2.4",
  "updatedAt": "2020-11-25T23:29:46.520Z",
  "networkType": "ethereum",
  "devdoc": {
    "methods": {}
  },
  "userdoc": {
    "methods": {
      "userSignUp(string,string,address)": {
        "notice": "constructor!"
      }
    }
  }
}