{
  "contractName": "PhotoMarketplace",
  "abi": [
    {
      "inputs": [],
      "payable": false,
      "stateMutability": "nonpayable",
      "type": "constructor"
    },
    {
      "anonymous": false,
      "inputs": [
        {
          "indexed": false,
          "internalType": "uint256",
          "name": "_photoID",
          "type": "uint256"
        }
      ],
      "name": "AddNewPhoto",
      "type": "event"
    },
    {
      "anonymous": false,
      "inputs": [
        {
          "indexed": false,
          "internalType": "uint256",
          "name": "_reqID",
          "type": "uint256"
        }
      ],
      "name": "AddNewPhotographyRequest",
      "type": "event"
    },
    {
      "anonymous": false,
      "inputs": [],
      "name": "DenialSubmitRequest",
      "type": "event"
    },
    {
      "anonymous": false,
      "inputs": [
        {
          "indexed": false,
          "internalType": "uint256",
          "name": "_photoID",
          "type": "uint256"
        }
      ],
      "name": "NotValidBuyer",
      "type": "event"
    },
    {
      "anonymous": false,
      "inputs": [
        {
          "indexed": false,
          "internalType": "uint256",
          "name": "_photoID",
          "type": "uint256"
        }
      ],
      "name": "SellPhoto",
      "type": "event"
    },
    {
      "anonymous": false,
      "inputs": [],
      "name": "StartEmergancyFreez",
      "type": "event"
    },
    {
      "constant": true,
      "inputs": [],
      "name": "photoCounter",
      "outputs": [
        {
          "internalType": "uint256",
          "name": "",
          "type": "uint256"
        }
      ],
      "payable": false,
      "stateMutability": "view",
      "type": "function"
    },
    {
      "constant": true,
      "inputs": [],
      "name": "photographyRequestCounter",
      "outputs": [
        {
          "internalType": "uint256",
          "name": "",
          "type": "uint256"
        }
      ],
      "payable": false,
      "stateMutability": "view",
      "type": "function"
    },
    {
      "constant": true,
      "inputs": [
        {
          "internalType": "uint256",
          "name": "",
          "type": "uint256"
        }
      ],
      "name": "photographyRequests",
      "outputs": [
        {
          "internalType": "address",
          "name": "requestMaker",
          "type": "address"
        },
        {
          "internalType": "string",
          "name": "logo",
          "type": "string"
        },
        {
          "internalType": "string",
          "name": "description",
          "type": "string"
        },
        {
          "internalType": "uint256",
          "name": "price",
          "type": "uint256"
        },
        {
          "internalType": "uint256",
          "name": "id",
          "type": "uint256"
        }
      ],
      "payable": false,
      "stateMutability": "view",
      "type": "function"
    },
    {
      "constant": true,
      "inputs": [
        {
          "internalType": "uint256",
          "name": "",
          "type": "uint256"
        }
      ],
      "name": "photos",
      "outputs": [
        {
          "internalType": "string",
          "name": "photoURL",
          "type": "string"
        },
        {
          "internalType": "uint256",
          "name": "photoID",
          "type": "uint256"
        },
        {
          "internalType": "string",
          "name": "photoname",
          "type": "string"
        },
        {
          "internalType": "string",
          "name": "photoDescription",
          "type": "string"
        },
        {
          "internalType": "address",
          "name": "photoOwner",
          "type": "address"
        },
        {
          "internalType": "uint256",
          "name": "photoPrice",
          "type": "uint256"
        }
      ],
      "payable": false,
      "stateMutability": "view",
      "type": "function"
    },
    {
      "constant": true,
      "inputs": [],
      "name": "stopped",
      "outputs": [
        {
          "internalType": "bool",
          "name": "",
          "type": "bool"
        }
      ],
      "payable": false,
      "stateMutability": "view",
      "type": "function"
    },
    {
      "constant": true,
      "inputs": [
        {
          "internalType": "address",
          "name": "",
          "type": "address"
        },
        {
          "internalType": "uint256",
          "name": "",
          "type": "uint256"
        }
      ],
      "name": "usersPhotos",
      "outputs": [
        {
          "internalType": "uint256",
          "name": "",
          "type": "uint256"
        }
      ],
      "payable": false,
      "stateMutability": "view",
      "type": "function"
    },
    {
      "constant": false,
      "inputs": [
        {
          "internalType": "string",
          "name": "_photourl",
          "type": "string"
        },
        {
          "internalType": "string",
          "name": "_photoname",
          "type": "string"
        },
        {
          "internalType": "string",
          "name": "_photoDesc",
          "type": "string"
        },
        {
          "internalType": "uint256",
          "name": "_photoPrice",
          "type": "uint256"
        }
      ],
      "name": "addPhoto",
      "outputs": [],
      "payable": false,
      "stateMutability": "nonpayable",
      "type": "function"
    },
    {
      "constant": false,
      "inputs": [
        {
          "internalType": "string",
          "name": "_logo",
          "type": "string"
        },
        {
          "internalType": "string",
          "name": "_desc",
          "type": "string"
        },
        {
          "internalType": "uint256",
          "name": "_price",
          "type": "uint256"
        }
      ],
      "name": "addPhotographyRequest",
      "outputs": [],
      "payable": false,
      "stateMutability": "nonpayable",
      "type": "function"
    },
    {
      "constant": false,
      "inputs": [
        {
          "internalType": "uint256",
          "name": "_photoID",
          "type": "uint256"
        }
      ],
      "name": "checkBuyer",
      "outputs": [
        {
          "internalType": "bool",
          "name": "",
          "type": "bool"
        }
      ],
      "payable": false,
      "stateMutability": "nonpayable",
      "type": "function"
    },
    {
      "constant": false,
      "inputs": [
        {
          "internalType": "uint256",
          "name": "_photoID",
          "type": "uint256"
        }
      ],
      "name": "sellPhoto",
      "outputs": [
        {
          "internalType": "bool",
          "name": "",
          "type": "bool"
        }
      ],
      "payable": true,
      "stateMutability": "payable",
      "type": "function"
    }
  ],
  "bytecode": "0x60806040526000600260006101000a81548160ff02191690831515021790555034801561002b57600080fd5b5033600660006101000a81548173ffffffffffffffffffffffffffffffffffffffff021916908373ffffffffffffffffffffffffffffffffffffffff16021790555061137e8061007c6000396000f3fe6080604052600436106100915760003560e01c806372a76b1d1161005957806372a76b1d146103ae57806375f12b211461051757806384132866146105465780639f219eb8146106a7578063af2a5d6f146106ed57610091565b8063042b91851461009657806328d97984146100e95780634a919ae8146102e95780635728526b146103145780635d7b499c14610383575b600080fd5b3480156100a257600080fd5b506100cf600480360360208110156100b957600080fd5b81019080803590602001909291905050506108ba565b604051808215151515815260200191505060405180910390f35b3480156100f557600080fd5b506102e76004803603608081101561010c57600080fd5b810190808035906020019064010000000081111561012957600080fd5b82018360208201111561013b57600080fd5b8035906020019184600183028401116401000000008311171561015d57600080fd5b91908080601f016020809104026020016040519081016040528093929190818152602001838380828437600081840152601f19601f820116905080830192505050505050509192919290803590602001906401000000008111156101c057600080fd5b8201836020820111156101d257600080fd5b803590602001918460018302840111640100000000831117156101f457600080fd5b91908080601f016020809104026020016040519081016040528093929190818152602001838380828437600081840152601f19601f8201169050808301925050505050505091929192908035906020019064010000000081111561025757600080fd5b82018360208201111561026957600080fd5b8035906020019184600183028401116401000000008311171561028b57600080fd5b91908080601f016020809104026020016040519081016040528093929190818152602001838380828437600081840152601f19601f820116905080830192505050505050509192919290803590602001909291905050506109aa565b005b3480156102f557600080fd5b506102fe610b8c565b6040518082815260200191505060405180910390f35b34801561032057600080fd5b5061036d6004803603604081101561033757600080fd5b81019080803573ffffffffffffffffffffffffffffffffffffffff16906020019092919080359060200190929190505050610b92565b6040518082815260200191505060405180910390f35b34801561038f57600080fd5b50610398610bc0565b6040518082815260200191505060405180910390f35b3480156103ba57600080fd5b50610515600480360360608110156103d157600080fd5b81019080803590602001906401000000008111156103ee57600080fd5b82018360208201111561040057600080fd5b8035906020019184600183028401116401000000008311171561042257600080fd5b91908080601f016020809104026020016040519081016040528093929190818152602001838380828437600081840152601f19601f8201169050808301925050505050505091929192908035906020019064010000000081111561048557600080fd5b82018360208201111561049757600080fd5b803590602001918460018302840111640100000000831117156104b957600080fd5b91908080601f016020809104026020016040519081016040528093929190818152602001838380828437600081840152601f19601f82011690508083019250505050505050919291929080359060200190929190505050610bc6565b005b34801561052357600080fd5b5061052c610d1a565b604051808215151515815260200191505060405180910390f35b34801561055257600080fd5b5061057f6004803603602081101561056957600080fd5b8101908080359060200190929190505050610d2d565b604051808673ffffffffffffffffffffffffffffffffffffffff1673ffffffffffffffffffffffffffffffffffffffff1681526020018060200180602001858152602001848152602001838103835287818151815260200191508051906020019080838360005b838110156106015780820151818401526020810190506105e6565b50505050905090810190601f16801561062e5780820380516001836020036101000a031916815260200191505b50838103825286818151815260200191508051906020019080838360005b8381101561066757808201518184015260208101905061064c565b50505050905090810190601f1680156106945780820380516001836020036101000a031916815260200191505b5097505050505050505060405180910390f35b6106d3600480360360208110156106bd57600080fd5b8101908080359060200190929190505050610eb3565b604051808215151515815260200191505060405180910390f35b3480156106f957600080fd5b506107266004803603602081101561071057600080fd5b8101908080359060200190929190505050611080565b604051808060200187815260200180602001806020018673ffffffffffffffffffffffffffffffffffffffff1673ffffffffffffffffffffffffffffffffffffffff16815260200185815260200184810384528a818151815260200191508051906020019080838360005b838110156107ac578082015181840152602081019050610791565b50505050905090810190601f1680156107d95780820380516001836020036101000a031916815260200191505b50848103835288818151815260200191508051906020019080838360005b838110156108125780820151818401526020810190506107f7565b50505050905090810190601f16801561083f5780820380516001836020036101000a031916815260200191505b50848103825287818151815260200191508051906020019080838360005b8381101561087857808201518184015260208101905061085d565b50505050905090810190601f1680156108a55780820380516001836020036101000a031916815260200191505b50995050505050505050505060405180910390f35b60003373ffffffffffffffffffffffffffffffffffffffff166003600084815260200190815260200160002060040160009054906101000a900473ffffffffffffffffffffffffffffffffffffffff1673ffffffffffffffffffffffffffffffffffffffff161415801561095b575060036000838152602001908152602001600020600501543373ffffffffffffffffffffffffffffffffffffffff163110155b1561096957600190506109a5565b7fb2142063d60cf4a2ce400a3f48245a842db2464f92b287bb1c2b9c5d69369413826040518082815260200191505060405180910390a1600090505b919050565b600260009054906101000a900460ff16156109c457600080fd5b600160008082825401925050819055506040518060c0016040528085815260200160005481526020018481526020018381526020013373ffffffffffffffffffffffffffffffffffffffff1681526020018281525060036000805481526020019081526020016000206000820151816000019080519060200190610a499291906112a4565b50602082015181600101556040820151816002019080519060200190610a709291906112a4565b506060820151816003019080519060200190610a8d9291906112a4565b5060808201518160040160006101000a81548173ffffffffffffffffffffffffffffffffffffffff021916908373ffffffffffffffffffffffffffffffffffffffff16021790555060a08201518160050155905050600560003373ffffffffffffffffffffffffffffffffffffffff1673ffffffffffffffffffffffffffffffffffffffff16815260200190815260200160002060005490806001815401808255809150509060018203906000526020600020016000909192909190915055507f605e4515671e02c2a40a9e48da7142fec5197223374bebde0c64e7e1bbe46f216000546040518082815260200191505060405180910390a150505050565b60005481565b60056020528160005260406000208181548110610bab57fe5b90600052602060002001600091509150505481565b60015481565b600260009054906101000a900460ff1615610be057600080fd5b600180600082825401925050819055506040518060a001604052803373ffffffffffffffffffffffffffffffffffffffff16815260200184815260200183815260200182815260200160015481525060046000600154815260200190815260200160002060008201518160000160006101000a81548173ffffffffffffffffffffffffffffffffffffffff021916908373ffffffffffffffffffffffffffffffffffffffff1602179055506020820151816001019080519060200190610ca79291906112a4565b506040820151816002019080519060200190610cc49291906112a4565b5060608201518160030155608082015181600401559050507f36d82aebe6d4981dc58dbcdd67cae5ae3300dd525cbed1c2bfacaf4a3b3af49f6001546040518082815260200191505060405180910390a1505050565b600260009054906101000a900460ff1681565b60046020528060005260406000206000915090508060000160009054906101000a900473ffffffffffffffffffffffffffffffffffffffff1690806001018054600181600116156101000203166002900480601f016020809104026020016040519081016040528092919081815260200182805460018160011615610100020316600290048015610dff5780601f10610dd457610100808354040283529160200191610dff565b820191906000526020600020905b815481529060010190602001808311610de257829003601f168201915b505050505090806002018054600181600116156101000203166002900480601f016020809104026020016040519081016040528092919081815260200182805460018160011615610100020316600290048015610e9d5780601f10610e7257610100808354040283529160200191610e9d565b820191906000526020600020905b815481529060010190602001808311610e8057829003601f168201915b5050505050908060030154908060040154905085565b6000600260009054906101000a900460ff1615610ecf57600080fd5b60011515610edc836108ba565b151514156110765760003373ffffffffffffffffffffffffffffffffffffffff16600a600360008681526020019081526020016000206005015481610f1d57fe5b0460405180600001905060006040518083038185875af1925050503d8060008114610f64576040519150601f19603f3d011682016040523d82523d6000602084013e610f69565b606091505b5050905080610fe0576040517f08c379a00000000000000000000000000000000000000000000000000000000081526004018080602001828103825260108152602001807f5472616e73666572206661696c65642e0000000000000000000000000000000081525060200191505060405180910390fd5b336003600085815260200190815260200160002060040160006101000a81548173ffffffffffffffffffffffffffffffffffffffff021916908373ffffffffffffffffffffffffffffffffffffffff1602179055507f5ec54bff0bd2dce4ebb9f836bf382ab88626482a3b2154f7890b45c5638c0873836040518082815260200191505060405180910390a1600191505061107b565b600090505b919050565b6003602052806000526040600020600091509050806000018054600181600116156101000203166002900480601f01602080910402602001604051908101604052809291908181526020018280546001816001161561010002031660029004801561112c5780601f106111015761010080835404028352916020019161112c565b820191906000526020600020905b81548152906001019060200180831161110f57829003601f168201915b505050505090806001015490806002018054600181600116156101000203166002900480601f0160208091040260200160405190810160405280929190818152602001828054600181600116156101000203166002900480156111d05780601f106111a5576101008083540402835291602001916111d0565b820191906000526020600020905b8154815290600101906020018083116111b357829003601f168201915b505050505090806003018054600181600116156101000203166002900480601f01602080910402602001604051908101604052809291908181526020018280546001816001161561010002031660029004801561126e5780601f106112435761010080835404028352916020019161126e565b820191906000526020600020905b81548152906001019060200180831161125157829003601f168201915b5050505050908060040160009054906101000a900473ffffffffffffffffffffffffffffffffffffffff16908060050154905086565b828054600181600116156101000203166002900490600052602060002090601f016020900481019282601f106112e557805160ff1916838001178555611313565b82800160010185558215611313579182015b828111156113125782518255916020019190600101906112f7565b5b5090506113209190611324565b5090565b61134691905b8082111561134257600081600090555060010161132a565b5090565b9056fea265627a7a72315820fc7ef3fb8351d582902984ec266c0e1d65198949a4087b6d1f3ac6082661540f64736f6c63430005100032",
  "source": "pragma solidity ^0.5.0;\n\nimport \"./SafeMath.sol\";\n\ncontract PhotoMarketplace {\n    //@notice information about each photo\n    //@dev photo struct keeps the info about each photo\n    struct Photo {\n        string photoURL;\n        uint photoID; //unique ID for each photo\n        string photoname;\n        string photoDescription;\n        address photoOwner;\n        uint photoPrice;\n    }\n    \n    //@notice information about each photography request\n    //@dev photography request by busincess acount holders\n    struct PhotographyRequest {\n        address requestMaker;\n        string logo;// ipfs hash to the logo\n        string description;\n        uint price;\n        uint id;\n    }\n    // @notice a counter to keep number of photos\n    // @ an identifier for photos\n    using SafeMath for uint256;\n    uint256 public photoCounter;\n\n    uint256 public photographyRequestCounter;\n\n    //@dev Circuit Breaker flag\n    bool public stopped = false;\n\n    //@notice keep track of all photos\n    //@dev mapping from photoID to it's meta data\n    mapping(uint256 => Photo) public photos;\n\n    //@notice keep track of all photography requests\n    //@dev dynamic array to keep track of photoshooting requests\n    mapping(uint256 => PhotographyRequest) public photographyRequests;\n\n    // @notice photo album of each user\n    // @notice keeps an array of photoes belong to each user\n    mapping(address => uint256[]) public usersPhotos; \n\n    // // @notice keeps who owns which photo\n    // // @notice keeps a mapping between photoID and address of it's owner\n    // mapping (uint => address) public photoOwner;\n\n    event AddNewPhoto(uint256 _photoID);\n    event DenialSubmitRequest();\n    event AddNewPhotographyRequest(uint256 _reqID);\n    event NotValidBuyer(uint _photoID);\n    event SellPhoto(uint _photoID);\n    event StartEmergancyFreez();\n\n    address private owner;\n\n    modifier stopInEmergency { require(!stopped); _; }\n    modifier onlyOwner {require(msg.sender == owner); _;}\n\n    constructor()\n    public\n    {\n        owner = msg.sender;\n    }\n\n    function callForEmergancy()\n    private \n    onlyOwner\n    {\n\n        if(msg.sender == owner)\n        {\n            stopped = true;\n            emit StartEmergancyFreez();\n        }\n    }\n\n    function addPhoto(string memory _photourl, string memory _photoname, string memory _photoDesc, uint _photoPrice)\n    stopInEmergency\n    public \n    {\n        photoCounter += 1;\n        photos[photoCounter] = Photo(_photourl, photoCounter, _photoname, _photoDesc, msg.sender ,_photoPrice);\n       // photoOwner[photoCounter]= msg.sender;\n        usersPhotos[msg.sender].push(photoCounter);\n        emit AddNewPhoto(photoCounter);\n       \n       \n    }\n\n    //@notice business users add new photo request and the price they are willing to pay\n    //@dev this function let business users to add they photography requests\n    function addPhotographyRequest(string memory _logo, string memory _desc, uint _price)\n    stopInEmergency\n    public\n    {\n        photographyRequestCounter += 1;\n\n        photographyRequests[photographyRequestCounter] = PhotographyRequest(msg.sender, _logo, _desc, _price, photographyRequestCounter);\n        \n        emit AddNewPhotographyRequest(photographyRequestCounter);\n    }\n\n    function checkBuyer(uint _photoID) \n    public\n    returns (bool)\n    {\n        if (photos[_photoID].photoOwner != msg.sender &&\n            msg.sender.balance >= photos[_photoID].photoPrice)\n        {\n            return true;\n        }\n        emit NotValidBuyer(_photoID);\n        return false;\n    }\n\n    //@notice sell photos\n    //@dev sell photo  = change the owner of a photo to a new address\n    function sellPhoto(uint _photoID)\n    public payable stopInEmergency\n    returns (bool)\n    {\n        if (checkBuyer(_photoID)==true)\n        {\n            (bool success, ) = msg.sender.call.value((photos[_photoID].photoPrice)/10)(\"\");\n            require(success, \"Transfer failed.\");\n            photos[_photoID].photoOwner = msg.sender;\n            emit SellPhoto(_photoID);\n            return true;\n        }\n        return false;\n    }\n}",
  "sourcePath": "/home/at/phD/projects/Blockchain/projects/tara/contracts/PhotoMarketplace.sol",
  "compiler": {
    "name": "solc",
    "version": "0.5.16+commit.9c3226ce.Emscripten.clang"
  },
  "schemaVersion": "3.2.4",
  "updatedAt": "2020-11-27T05:35:50.916Z",
  "networkType": "ethereum",
  "devdoc": {
    "methods": {}
  },
  "userdoc": {
    "methods": {}
  }
}