{
  "contractName": "PhotoMarketplace",
  "abi": [
    {
      "anonymous": false,
      "inputs": [
        {
          "indexed": false,
          "internalType": "uint256",
          "name": "_photoID",
          "type": "uint256"
        }
      ],
      "name": "AddNewPhoto",
      "type": "event"
    },
    {
      "anonymous": false,
      "inputs": [
        {
          "indexed": false,
          "internalType": "uint256",
          "name": "_reqID",
          "type": "uint256"
        }
      ],
      "name": "AddNewPhotographyRequest",
      "type": "event"
    },
    {
      "anonymous": false,
      "inputs": [],
      "name": "DenialSubmitRequest",
      "type": "event"
    },
    {
      "anonymous": false,
      "inputs": [
        {
          "indexed": false,
          "internalType": "uint256",
          "name": "_photoID",
          "type": "uint256"
        }
      ],
      "name": "NotValidBuyer",
      "type": "event"
    },
    {
      "anonymous": false,
      "inputs": [
        {
          "indexed": false,
          "internalType": "uint256",
          "name": "_photoID",
          "type": "uint256"
        }
      ],
      "name": "SellPhoto",
      "type": "event"
    },
    {
      "constant": true,
      "inputs": [],
      "name": "photoCounter",
      "outputs": [
        {
          "internalType": "uint256",
          "name": "",
          "type": "uint256"
        }
      ],
      "payable": false,
      "stateMutability": "view",
      "type": "function"
    },
    {
      "constant": true,
      "inputs": [],
      "name": "photographyRequestCounter",
      "outputs": [
        {
          "internalType": "uint256",
          "name": "",
          "type": "uint256"
        }
      ],
      "payable": false,
      "stateMutability": "view",
      "type": "function"
    },
    {
      "constant": true,
      "inputs": [
        {
          "internalType": "uint256",
          "name": "",
          "type": "uint256"
        }
      ],
      "name": "photographyRequests",
      "outputs": [
        {
          "internalType": "address",
          "name": "requestMaker",
          "type": "address"
        },
        {
          "internalType": "string",
          "name": "logo",
          "type": "string"
        },
        {
          "internalType": "string",
          "name": "description",
          "type": "string"
        },
        {
          "internalType": "uint256",
          "name": "price",
          "type": "uint256"
        }
      ],
      "payable": false,
      "stateMutability": "view",
      "type": "function"
    },
    {
      "constant": true,
      "inputs": [
        {
          "internalType": "uint256",
          "name": "",
          "type": "uint256"
        }
      ],
      "name": "photos",
      "outputs": [
        {
          "internalType": "string",
          "name": "photoURL",
          "type": "string"
        },
        {
          "internalType": "uint256",
          "name": "photoID",
          "type": "uint256"
        },
        {
          "internalType": "string",
          "name": "photoname",
          "type": "string"
        },
        {
          "internalType": "string",
          "name": "photoDescription",
          "type": "string"
        },
        {
          "internalType": "address",
          "name": "photoOwner",
          "type": "address"
        },
        {
          "internalType": "uint256",
          "name": "photoPrice",
          "type": "uint256"
        }
      ],
      "payable": false,
      "stateMutability": "view",
      "type": "function"
    },
    {
      "constant": true,
      "inputs": [
        {
          "internalType": "address",
          "name": "",
          "type": "address"
        },
        {
          "internalType": "uint256",
          "name": "",
          "type": "uint256"
        }
      ],
      "name": "usersPhotos",
      "outputs": [
        {
          "internalType": "uint256",
          "name": "",
          "type": "uint256"
        }
      ],
      "payable": false,
      "stateMutability": "view",
      "type": "function"
    },
    {
      "constant": false,
      "inputs": [
        {
          "internalType": "string",
          "name": "_photourl",
          "type": "string"
        },
        {
          "internalType": "string",
          "name": "_photoname",
          "type": "string"
        },
        {
          "internalType": "string",
          "name": "_photoDesc",
          "type": "string"
        },
        {
          "internalType": "uint256",
          "name": "_photoPrice",
          "type": "uint256"
        }
      ],
      "name": "addPhoto",
      "outputs": [],
      "payable": false,
      "stateMutability": "nonpayable",
      "type": "function"
    },
    {
      "constant": false,
      "inputs": [
        {
          "internalType": "bytes32",
          "name": "_photoId",
          "type": "bytes32"
        }
      ],
      "name": "deletePhoto",
      "outputs": [],
      "payable": false,
      "stateMutability": "nonpayable",
      "type": "function"
    },
    {
      "constant": false,
      "inputs": [
        {
          "internalType": "string",
          "name": "_logo",
          "type": "string"
        },
        {
          "internalType": "string",
          "name": "_desc",
          "type": "string"
        },
        {
          "internalType": "uint256",
          "name": "_price",
          "type": "uint256"
        }
      ],
      "name": "addPhotographyRequest",
      "outputs": [],
      "payable": false,
      "stateMutability": "nonpayable",
      "type": "function"
    },
    {
      "constant": false,
      "inputs": [
        {
          "internalType": "uint256",
          "name": "_photoID",
          "type": "uint256"
        }
      ],
      "name": "checkBuyer",
      "outputs": [
        {
          "internalType": "bool",
          "name": "",
          "type": "bool"
        }
      ],
      "payable": false,
      "stateMutability": "nonpayable",
      "type": "function"
    },
    {
      "constant": false,
      "inputs": [
        {
          "internalType": "uint256",
          "name": "_photoID",
          "type": "uint256"
        }
      ],
      "name": "sellPhoto",
      "outputs": [],
      "payable": false,
      "stateMutability": "nonpayable",
      "type": "function"
    }
  ],
  "bytecode": "0x608060405234801561001057600080fd5b5061126b806100206000396000f3fe608060405234801561001057600080fd5b506004361061009e5760003560e01c806372a76b1d1161006657806372a76b1d1461037a57806384132866146104d65780639f219eb814610623578063af2a5d6f14610651578063fe245ddb146108115761009e565b8063042b9185146100a357806328d97984146100e95780634a919ae8146102dc5780635728526b146102fa5780635d7b499c1461035c575b600080fd5b6100cf600480360360208110156100b957600080fd5b810190808035906020019092919050505061083f565b604051808215151515815260200191505060405180910390f35b6102da600480360360808110156100ff57600080fd5b810190808035906020019064010000000081111561011c57600080fd5b82018360208201111561012e57600080fd5b8035906020019184600183028401116401000000008311171561015057600080fd5b91908080601f016020809104026020016040519081016040528093929190818152602001838380828437600081840152601f19601f820116905080830192505050505050509192919290803590602001906401000000008111156101b357600080fd5b8201836020820111156101c557600080fd5b803590602001918460018302840111640100000000831117156101e757600080fd5b91908080601f016020809104026020016040519081016040528093929190818152602001838380828437600081840152601f19601f8201169050808301925050505050505091929192908035906020019064010000000081111561024a57600080fd5b82018360208201111561025c57600080fd5b8035906020019184600183028401116401000000008311171561027e57600080fd5b91908080601f016020809104026020016040519081016040528093929190818152602001838380828437600081840152601f19601f8201169050808301925050505050505091929192908035906020019092919050505061092f565b005b6102e4610af7565b6040518082815260200191505060405180910390f35b6103466004803603604081101561031057600080fd5b81019080803573ffffffffffffffffffffffffffffffffffffffff16906020019092919080359060200190929190505050610afd565b6040518082815260200191505060405180910390f35b610364610b2b565b6040518082815260200191505060405180910390f35b6104d46004803603606081101561039057600080fd5b81019080803590602001906401000000008111156103ad57600080fd5b8201836020820111156103bf57600080fd5b803590602001918460018302840111640100000000831117156103e157600080fd5b91908080601f016020809104026020016040519081016040528093929190818152602001838380828437600081840152601f19601f8201169050808301925050505050505091929192908035906020019064010000000081111561044457600080fd5b82018360208201111561045657600080fd5b8035906020019184600183028401116401000000008311171561047857600080fd5b91908080601f016020809104026020016040519081016040528093929190818152602001838380828437600081840152601f19601f82011690508083019250505050505050919291929080359060200190929190505050610b31565b005b610502600480360360208110156104ec57600080fd5b8101908080359060200190929190505050610c59565b604051808573ffffffffffffffffffffffffffffffffffffffff1673ffffffffffffffffffffffffffffffffffffffff1681526020018060200180602001848152602001838103835286818151815260200191508051906020019080838360005b8381101561057e578082015181840152602081019050610563565b50505050905090810190601f1680156105ab5780820380516001836020036101000a031916815260200191505b50838103825285818151815260200191508051906020019080838360005b838110156105e45780820151818401526020810190506105c9565b50505050905090810190601f1680156106115780820380516001836020036101000a031916815260200191505b50965050505050505060405180910390f35b61064f6004803603602081101561063957600080fd5b8101908080359060200190929190505050610dd9565b005b61067d6004803603602081101561066757600080fd5b8101908080359060200190929190505050610f6a565b604051808060200187815260200180602001806020018673ffffffffffffffffffffffffffffffffffffffff1673ffffffffffffffffffffffffffffffffffffffff16815260200185815260200184810384528a818151815260200191508051906020019080838360005b838110156107035780820151818401526020810190506106e8565b50505050905090810190601f1680156107305780820380516001836020036101000a031916815260200191505b50848103835288818151815260200191508051906020019080838360005b8381101561076957808201518184015260208101905061074e565b50505050905090810190601f1680156107965780820380516001836020036101000a031916815260200191505b50848103825287818151815260200191508051906020019080838360005b838110156107cf5780820151818401526020810190506107b4565b50505050905090810190601f1680156107fc5780820380516001836020036101000a031916815260200191505b50995050505050505050505060405180910390f35b61083d6004803603602081101561082757600080fd5b810190808035906020019092919050505061118e565b005b60003373ffffffffffffffffffffffffffffffffffffffff166002600084815260200190815260200160002060040160009054906101000a900473ffffffffffffffffffffffffffffffffffffffff1673ffffffffffffffffffffffffffffffffffffffff16141580156108e0575060026000838152602001908152602001600020600501543373ffffffffffffffffffffffffffffffffffffffff163110155b156108ee576001905061092a565b7fb2142063d60cf4a2ce400a3f48245a842db2464f92b287bb1c2b9c5d69369413826040518082815260200191505060405180910390a1600090505b919050565b600160008082825401925050819055506040518060c0016040528085815260200160005481526020018481526020018381526020013373ffffffffffffffffffffffffffffffffffffffff16815260200182815250600260008054815260200190815260200160002060008201518160000190805190602001906109b4929190611191565b506020820151816001015560408201518160020190805190602001906109db929190611191565b5060608201518160030190805190602001906109f8929190611191565b5060808201518160040160006101000a81548173ffffffffffffffffffffffffffffffffffffffff021916908373ffffffffffffffffffffffffffffffffffffffff16021790555060a08201518160050155905050600460003373ffffffffffffffffffffffffffffffffffffffff1673ffffffffffffffffffffffffffffffffffffffff16815260200190815260200160002060005490806001815401808255809150509060018203906000526020600020016000909192909190915055507f605e4515671e02c2a40a9e48da7142fec5197223374bebde0c64e7e1bbe46f216000546040518082815260200191505060405180910390a150505050565b60005481565b60046020528160005260406000208181548110610b1657fe5b90600052602060002001600091509150505481565b60015481565b6001806000828254019250508190555060405180608001604052803373ffffffffffffffffffffffffffffffffffffffff1681526020018481526020018381526020018281525060036000600154815260200190815260200160002060008201518160000160006101000a81548173ffffffffffffffffffffffffffffffffffffffff021916908373ffffffffffffffffffffffffffffffffffffffff1602179055506020820151816001019080519060200190610bf0929190611191565b506040820151816002019080519060200190610c0d929190611191565b50606082015181600301559050507f36d82aebe6d4981dc58dbcdd67cae5ae3300dd525cbed1c2bfacaf4a3b3af49f6001546040518082815260200191505060405180910390a1505050565b60036020528060005260406000206000915090508060000160009054906101000a900473ffffffffffffffffffffffffffffffffffffffff1690806001018054600181600116156101000203166002900480601f016020809104026020016040519081016040528092919081815260200182805460018160011615610100020316600290048015610d2b5780601f10610d0057610100808354040283529160200191610d2b565b820191906000526020600020905b815481529060010190602001808311610d0e57829003601f168201915b505050505090806002018054600181600116156101000203166002900480601f016020809104026020016040519081016040528092919081815260200182805460018160011615610100020316600290048015610dc95780601f10610d9e57610100808354040283529160200191610dc9565b820191906000526020600020905b815481529060010190602001808311610dac57829003601f168201915b5050505050908060030154905084565b610de28161083f565b15610f675760003373ffffffffffffffffffffffffffffffffffffffff16600260008481526020019081526020016000206005015460405180600001905060006040518083038185875af1925050503d8060008114610e5d576040519150601f19603f3d011682016040523d82523d6000602084013e610e62565b606091505b5050905080610ed9576040517f08c379a00000000000000000000000000000000000000000000000000000000081526004018080602001828103825260108152602001807f5472616e73666572206661696c65642e0000000000000000000000000000000081525060200191505060405180910390fd5b336002600084815260200190815260200160002060040160006101000a81548173ffffffffffffffffffffffffffffffffffffffff021916908373ffffffffffffffffffffffffffffffffffffffff1602179055507f5ec54bff0bd2dce4ebb9f836bf382ab88626482a3b2154f7890b45c5638c0873826040518082815260200191505060405180910390a1505b50565b6002602052806000526040600020600091509050806000018054600181600116156101000203166002900480601f0160208091040260200160405190810160405280929190818152602001828054600181600116156101000203166002900480156110165780601f10610feb57610100808354040283529160200191611016565b820191906000526020600020905b815481529060010190602001808311610ff957829003601f168201915b505050505090806001015490806002018054600181600116156101000203166002900480601f0160208091040260200160405190810160405280929190818152602001828054600181600116156101000203166002900480156110ba5780601f1061108f576101008083540402835291602001916110ba565b820191906000526020600020905b81548152906001019060200180831161109d57829003601f168201915b505050505090806003018054600181600116156101000203166002900480601f0160208091040260200160405190810160405280929190818152602001828054600181600116156101000203166002900480156111585780601f1061112d57610100808354040283529160200191611158565b820191906000526020600020905b81548152906001019060200180831161113b57829003601f168201915b5050505050908060040160009054906101000a900473ffffffffffffffffffffffffffffffffffffffff16908060050154905086565b50565b828054600181600116156101000203166002900490600052602060002090601f016020900481019282601f106111d257805160ff1916838001178555611200565b82800160010185558215611200579182015b828111156111ff5782518255916020019190600101906111e4565b5b50905061120d9190611211565b5090565b61123391905b8082111561122f576000816000905550600101611217565b5090565b9056fea265627a7a72315820f4a3e4fdb63890113a973a0dc4d911b09b4ab34eaa6db008f44de3a4c7bd7f8864736f6c63430005100032",
  "source": "pragma solidity ^0.5.0;\n\nimport \"./SafeMath.sol\";\n\ncontract PhotoMarketplace {\n    //@notice information about each photo\n    //@dev photo struct keeps the info about each photo\n    struct Photo {\n        string photoURL;\n        uint photoID; //unique ID for each photo\n        string photoname;\n        string photoDescription;\n        address photoOwner;\n        uint photoPrice;\n    }\n    \n    //@notice information about each photography request\n    //@dev photography request by busincess acount holders\n    struct PhotographyRequest {\n        address requestMaker;\n        string logo;// ipfs hash to the logo\n        string description;\n        uint price;\n    }\n    // @notice a counter to keep number of photos\n    // @ an identifier for photos\n    using SafeMath for uint256;\n    uint256 public photoCounter;\n\n    uint256 public photographyRequestCounter;\n\n    //@notice keep track of all photos\n    //@dev mapping from photoID to it's meta data\n    mapping(uint256 => Photo) public photos;\n\n    //@notice keep track of all photography requests\n    //@dev dynamic array to keep track of photoshooting requests\n    mapping(uint256 => PhotographyRequest) public photographyRequests;\n\n    // @notice photo album of each user\n    // @notice keeps an array of photoes belong to each user\n    mapping(address => uint256[]) public usersPhotos; \n\n    // // @notice keeps who owns which photo\n    // // @notice keeps a mapping between photoID and address of it's owner\n    // mapping (uint => address) public photoOwner;\n\n    event AddNewPhoto(uint256 _photoID);\n    event DenialSubmitRequest();\n    event AddNewPhotographyRequest(uint256 _reqID);\n    event NotValidBuyer(uint _photoID);\n    event SellPhoto(uint _photoID);\n\n\n    function addPhoto(string memory _photourl, string memory _photoname, string memory _photoDesc, uint _photoPrice)\n    public \n    {\n        photoCounter += 1;\n        photos[photoCounter] = Photo(_photourl, photoCounter, _photoname, _photoDesc, msg.sender ,_photoPrice);\n       // photoOwner[photoCounter]= msg.sender;\n        usersPhotos[msg.sender].push(photoCounter);\n        emit AddNewPhoto(photoCounter);\n       \n       \n    }\n\n    function deletePhoto(bytes32 _photoId)\n    public \n    {\n\n    }\n\n    //@notice business users add new photo request and the price they are willing to pay\n    //@dev this function let business users to add they photography requests\n    function addPhotographyRequest(string memory _logo, string memory _desc, uint _price)\n    public\n    {\n        photographyRequestCounter += 1;\n\n        photographyRequests[photographyRequestCounter] = PhotographyRequest(msg.sender, _logo, _desc, _price);\n        \n        emit AddNewPhotographyRequest(photographyRequestCounter);\n\n    }\n\n    function checkBuyer(uint _photoID) \n    public\n    returns (bool)\n    {\n        if (photos[_photoID].photoOwner != msg.sender &&\n            msg.sender.balance >= photos[_photoID].photoPrice)\n        {\n            return true;\n        }\n        emit NotValidBuyer(_photoID);\n        return false;\n    }\n\n    //@notice sell photos\n    //@dev sell photo  = change the owner of a photo to a new address\n    function sellPhoto(uint _photoID)\n    public\n    {\n        if (checkBuyer(_photoID))\n        {\n            //bool success = msg.sender.transfer(photos[_photoID].photoPrice);\n            (bool success, ) = msg.sender.call.value(photos[_photoID].photoPrice)(\"\");\n            require(success, \"Transfer failed.\");\n\n            photos[_photoID].photoOwner = msg.sender;\n            emit SellPhoto(_photoID);\n        }\n    }\n}",
  "sourcePath": "/home/at/phD/projects/Blockchain/projects/tara/contracts/PhotoMarketplace.sol",
  "compiler": {
    "name": "solc",
    "version": "0.5.16+commit.9c3226ce.Emscripten.clang"
  },
  "schemaVersion": "3.2.4",
  "updatedAt": "2020-11-27T03:47:37.894Z",
  "devdoc": {
    "methods": {}
  },
  "userdoc": {
    "methods": {}
  }
}