{
  "contractName": "PhotoMarketplace",
  "abi": [
    {
      "anonymous": false,
      "inputs": [
        {
          "indexed": false,
          "internalType": "uint256",
          "name": "_photoID",
          "type": "uint256"
        }
      ],
      "name": "AddNewPhoto",
      "type": "event"
    },
    {
      "constant": true,
      "inputs": [],
      "name": "photoCounter",
      "outputs": [
        {
          "internalType": "uint256",
          "name": "",
          "type": "uint256"
        }
      ],
      "payable": false,
      "stateMutability": "view",
      "type": "function"
    },
    {
      "constant": true,
      "inputs": [
        {
          "internalType": "uint256",
          "name": "",
          "type": "uint256"
        }
      ],
      "name": "photos",
      "outputs": [
        {
          "internalType": "string",
          "name": "photoURL",
          "type": "string"
        },
        {
          "internalType": "uint256",
          "name": "photoID",
          "type": "uint256"
        },
        {
          "internalType": "string",
          "name": "photoname",
          "type": "string"
        },
        {
          "internalType": "string",
          "name": "photoDescription",
          "type": "string"
        },
        {
          "internalType": "address",
          "name": "photoOwner",
          "type": "address"
        },
        {
          "internalType": "uint256",
          "name": "photoPrice",
          "type": "uint256"
        }
      ],
      "payable": false,
      "stateMutability": "view",
      "type": "function"
    },
    {
      "constant": true,
      "inputs": [
        {
          "internalType": "address",
          "name": "",
          "type": "address"
        },
        {
          "internalType": "uint256",
          "name": "",
          "type": "uint256"
        }
      ],
      "name": "usersPhotos",
      "outputs": [
        {
          "internalType": "uint256",
          "name": "",
          "type": "uint256"
        }
      ],
      "payable": false,
      "stateMutability": "view",
      "type": "function"
    },
    {
      "constant": false,
      "inputs": [
        {
          "internalType": "string",
          "name": "_photourl",
          "type": "string"
        },
        {
          "internalType": "string",
          "name": "_photoname",
          "type": "string"
        },
        {
          "internalType": "string",
          "name": "_photoDesc",
          "type": "string"
        },
        {
          "internalType": "uint256",
          "name": "_photoPrice",
          "type": "uint256"
        }
      ],
      "name": "addPhoto",
      "outputs": [],
      "payable": false,
      "stateMutability": "nonpayable",
      "type": "function"
    },
    {
      "constant": false,
      "inputs": [
        {
          "internalType": "bytes32",
          "name": "_photoId",
          "type": "bytes32"
        }
      ],
      "name": "deletePhoto",
      "outputs": [],
      "payable": false,
      "stateMutability": "nonpayable",
      "type": "function"
    },
    {
      "constant": false,
      "inputs": [
        {
          "internalType": "bytes32",
          "name": "_photoID",
          "type": "bytes32"
        },
        {
          "internalType": "address",
          "name": "_newOwner",
          "type": "address"
        }
      ],
      "name": "sellPhoto",
      "outputs": [],
      "payable": false,
      "stateMutability": "nonpayable",
      "type": "function"
    },
    {
      "constant": false,
      "inputs": [
        {
          "internalType": "bytes32",
          "name": "_photoID",
          "type": "bytes32"
        }
      ],
      "name": "checkBuyerBalance",
      "outputs": [],
      "payable": false,
      "stateMutability": "nonpayable",
      "type": "function"
    }
  ],
  "bytecode": "0x608060405234801561001057600080fd5b50610a63806100206000396000f3fe608060405234801561001057600080fd5b506004361061007d5760003560e01c806381093fff1161005b57806381093fff146102f5578063af2a5d6f14610323578063b53e0824146104e3578063fe245ddb146105315761007d565b806328d97984146100825780634a919ae8146102755780635728526b14610293575b600080fd5b6102736004803603608081101561009857600080fd5b81019080803590602001906401000000008111156100b557600080fd5b8201836020820111156100c757600080fd5b803590602001918460018302840111640100000000831117156100e957600080fd5b91908080601f016020809104026020016040519081016040528093929190818152602001838380828437600081840152601f19601f8201169050808301925050505050505091929192908035906020019064010000000081111561014c57600080fd5b82018360208201111561015e57600080fd5b8035906020019184600183028401116401000000008311171561018057600080fd5b91908080601f016020809104026020016040519081016040528093929190818152602001838380828437600081840152601f19601f820116905080830192505050505050509192919290803590602001906401000000008111156101e357600080fd5b8201836020820111156101f557600080fd5b8035906020019184600183028401116401000000008311171561021757600080fd5b91908080601f016020809104026020016040519081016040528093929190818152602001838380828437600081840152601f19601f8201169050808301925050505050505091929192908035906020019092919050505061055f565b005b61027d610727565b6040518082815260200191505060405180910390f35b6102df600480360360408110156102a957600080fd5b81019080803573ffffffffffffffffffffffffffffffffffffffff1690602001909291908035906020019092919050505061072d565b6040518082815260200191505060405180910390f35b6103216004803603602081101561030b57600080fd5b810190808035906020019092919050505061075b565b005b61034f6004803603602081101561033957600080fd5b810190808035906020019092919050505061075e565b604051808060200187815260200180602001806020018673ffffffffffffffffffffffffffffffffffffffff1673ffffffffffffffffffffffffffffffffffffffff16815260200185815260200184810384528a818151815260200191508051906020019080838360005b838110156103d55780820151818401526020810190506103ba565b50505050905090810190601f1680156104025780820380516001836020036101000a031916815260200191505b50848103835288818151815260200191508051906020019080838360005b8381101561043b578082015181840152602081019050610420565b50505050905090810190601f1680156104685780820380516001836020036101000a031916815260200191505b50848103825287818151815260200191508051906020019080838360005b838110156104a1578082015181840152602081019050610486565b50505050905090810190601f1680156104ce5780820380516001836020036101000a031916815260200191505b50995050505050505050505060405180910390f35b61052f600480360360408110156104f957600080fd5b8101908080359060200190929190803573ffffffffffffffffffffffffffffffffffffffff169060200190929190505050610982565b005b61055d6004803603602081101561054757600080fd5b8101908080359060200190929190505050610986565b005b6040518060c0016040528085815260200160005481526020018481526020018381526020013373ffffffffffffffffffffffffffffffffffffffff16815260200182815250600160008054815260200190815260200160002060008201518160000190805190602001906105d4929190610989565b506020820151816001015560408201518160020190805190602001906105fb929190610989565b506060820151816003019080519060200190610618929190610989565b5060808201518160040160006101000a81548173ffffffffffffffffffffffffffffffffffffffff021916908373ffffffffffffffffffffffffffffffffffffffff16021790555060a08201518160050155905050600260003373ffffffffffffffffffffffffffffffffffffffff1673ffffffffffffffffffffffffffffffffffffffff16815260200190815260200160002060005490806001815401808255809150509060018203906000526020600020016000909192909190915055507f605e4515671e02c2a40a9e48da7142fec5197223374bebde0c64e7e1bbe46f216000546040518082815260200191505060405180910390a16001600080828254019250508190555050505050565b60005481565b6002602052816000526040600020818154811061074657fe5b90600052602060002001600091509150505481565b50565b6001602052806000526040600020600091509050806000018054600181600116156101000203166002900480601f01602080910402602001604051908101604052809291908181526020018280546001816001161561010002031660029004801561080a5780601f106107df5761010080835404028352916020019161080a565b820191906000526020600020905b8154815290600101906020018083116107ed57829003601f168201915b505050505090806001015490806002018054600181600116156101000203166002900480601f0160208091040260200160405190810160405280929190818152602001828054600181600116156101000203166002900480156108ae5780601f10610883576101008083540402835291602001916108ae565b820191906000526020600020905b81548152906001019060200180831161089157829003601f168201915b505050505090806003018054600181600116156101000203166002900480601f01602080910402602001604051908101604052809291908181526020018280546001816001161561010002031660029004801561094c5780601f106109215761010080835404028352916020019161094c565b820191906000526020600020905b81548152906001019060200180831161092f57829003601f168201915b5050505050908060040160009054906101000a900473ffffffffffffffffffffffffffffffffffffffff16908060050154905086565b5050565b50565b828054600181600116156101000203166002900490600052602060002090601f016020900481019282601f106109ca57805160ff19168380011785556109f8565b828001600101855582156109f8579182015b828111156109f75782518255916020019190600101906109dc565b5b509050610a059190610a09565b5090565b610a2b91905b80821115610a27576000816000905550600101610a0f565b5090565b9056fea265627a7a723158204c525b9f7884e81b735dd2c7a0c9698a71d7855b0f7d819593af3f1e8cc76fe964736f6c63430005100032",
  "source": "pragma solidity ^0.5.0;\n\nimport \"./SafeMath.sol\";\n\ncontract PhotoMarketplace {\n    //@notice information about each photo\n    //@dev photo struct keeps the info about each photo\n    struct Photo {\n        string photoURL;\n        uint photoID; //unique ID for each photo\n        string photoname;\n        string photoDescription;\n        address photoOwner;\n        uint photoPrice;\n    }\n    \n    // @notice a counter to keep number of photos\n    // @ an identifier for photos\n    using SafeMath for uint256;\n    uint256 public photoCounter;\n\n    //@notice keep track of all photos\n    // @dev mapping from photoID to it's meta data\n    mapping(uint256 => Photo) public photos;\n\n    // @notice photo album of each user\n    // @notice keeps an array of photoes belong to each user\n    mapping(address => uint256[]) public usersPhotos; \n\n    // // @notice keeps who owns which photo\n    // // @notice keeps a mapping between photoID and address of it's owner\n    // mapping (uint => address) public photoOwner;\n\n    event AddNewPhoto(uint256 _photoID);\n\n    function addPhoto(string memory _photourl, string memory _photoname, string memory _photoDesc, uint _photoPrice)\n    public \n    {\n        photos[photoCounter] = Photo(_photourl, photoCounter, _photoname, _photoDesc, msg.sender ,_photoPrice);\n       // photoOwner[photoCounter]= msg.sender;\n        usersPhotos[msg.sender].push(photoCounter);\n        emit AddNewPhoto(photoCounter);\n       \n        photoCounter += 1;\n    }\n\n    function deletePhoto(bytes32 _photoId)\n    public \n    {\n\n    }\n\n    //@notice sell photos\n    //@dev sell photo  = change the owner of a photo to a new address\n    function sellPhoto(bytes32 _photoID, address _newOwner)\n    public\n    {\n\n    }\n\n    function checkBuyerBalance(bytes32 _photoID)\n    public\n    {\n        \n    }\n}",
  "sourcePath": "/home/at/phD/projects/Blockchain/projects/tara/contracts/PhotoMarketplace.sol",
  "compiler": {
    "name": "solc",
    "version": "0.5.16+commit.9c3226ce.Emscripten.clang"
  },
  "schemaVersion": "3.2.4",
  "updatedAt": "2020-11-23T16:23:48.600Z",
  "devdoc": {
    "methods": {}
  },
  "userdoc": {
    "methods": {}
  }
}