{
  "contractName": "UserManagement",
  "abi": [
    {
      "anonymous": false,
      "inputs": [
        {
          "indexed": false,
          "internalType": "string",
          "name": "_email",
          "type": "string"
        }
      ],
      "name": "failedSignUp",
      "type": "event"
    },
    {
      "anonymous": false,
      "inputs": [
        {
          "indexed": false,
          "internalType": "string",
          "name": "_companyname",
          "type": "string"
        }
      ],
      "name": "newBusinessSignUp",
      "type": "event"
    },
    {
      "anonymous": false,
      "inputs": [
        {
          "indexed": true,
          "internalType": "address",
          "name": "_useraddress",
          "type": "address"
        },
        {
          "indexed": false,
          "internalType": "bytes32",
          "name": "_userID",
          "type": "bytes32"
        }
      ],
      "name": "newSignUP",
      "type": "event"
    },
    {
      "constant": true,
      "inputs": [
        {
          "internalType": "address",
          "name": "",
          "type": "address"
        }
      ],
      "name": "businessInfo",
      "outputs": [
        {
          "internalType": "string",
          "name": "companyName",
          "type": "string"
        },
        {
          "internalType": "string",
          "name": "companyDescription",
          "type": "string"
        }
      ],
      "payable": false,
      "stateMutability": "view",
      "type": "function"
    },
    {
      "constant": true,
      "inputs": [
        {
          "internalType": "address",
          "name": "",
          "type": "address"
        }
      ],
      "name": "users",
      "outputs": [
        {
          "internalType": "string",
          "name": "userName",
          "type": "string"
        },
        {
          "internalType": "string",
          "name": "userEmail",
          "type": "string"
        },
        {
          "internalType": "bytes32",
          "name": "userID",
          "type": "bytes32"
        },
        {
          "internalType": "address",
          "name": "userWalletAddress",
          "type": "address"
        },
        {
          "internalType": "bool",
          "name": "activateAccount",
          "type": "bool"
        },
        {
          "internalType": "bool",
          "name": "businessAccount",
          "type": "bool"
        }
      ],
      "payable": false,
      "stateMutability": "view",
      "type": "function"
    },
    {
      "constant": false,
      "inputs": [
        {
          "internalType": "string",
          "name": "_name",
          "type": "string"
        },
        {
          "internalType": "string",
          "name": "_email",
          "type": "string"
        },
        {
          "internalType": "address",
          "name": "_wallet",
          "type": "address"
        }
      ],
      "name": "userSignUp",
      "outputs": [],
      "payable": false,
      "stateMutability": "nonpayable",
      "type": "function"
    },
    {
      "constant": false,
      "inputs": [
        {
          "internalType": "string",
          "name": "_companyname",
          "type": "string"
        },
        {
          "internalType": "string",
          "name": "_companydescription",
          "type": "string"
        }
      ],
      "name": "businessSignUp",
      "outputs": [],
      "payable": false,
      "stateMutability": "nonpayable",
      "type": "function"
    }
  ],
  "bytecode": "0x608060405234801561001057600080fd5b50610e9f806100206000396000f3fe608060405234801561001057600080fd5b506004361061004c5760003560e01c80630ef55c8114610051578063495c02bf146101a35780636a0b05ea14610315578063a87430ba1461043e575b600080fd5b6101a16004803603604081101561006757600080fd5b810190808035906020019064010000000081111561008457600080fd5b82018360208201111561009657600080fd5b803590602001918460018302840111640100000000831117156100b857600080fd5b91908080601f016020809104026020016040519081016040528093929190818152602001838380828437600081840152601f19601f8201169050808301925050505050505091929192908035906020019064010000000081111561011b57600080fd5b82018360208201111561012d57600080fd5b8035906020019184600183028401116401000000008311171561014f57600080fd5b91908080601f016020809104026020016040519081016040528093929190818152602001838380828437600081840152601f19601f8201169050808301925050505050505091929192905050506105b7565b005b610313600480360360608110156101b957600080fd5b81019080803590602001906401000000008111156101d657600080fd5b8201836020820111156101e857600080fd5b8035906020019184600183028401116401000000008311171561020a57600080fd5b91908080601f016020809104026020016040519081016040528093929190818152602001838380828437600081840152601f19601f8201169050808301925050505050505091929192908035906020019064010000000081111561026d57600080fd5b82018360208201111561027f57600080fd5b803590602001918460018302840111640100000000831117156102a157600080fd5b91908080601f016020809104026020016040519081016040528093929190818152602001838380828437600081840152601f19601f820116905080830192505050505050509192919290803573ffffffffffffffffffffffffffffffffffffffff16906020019092919050505061079a565b005b6103576004803603602081101561032b57600080fd5b81019080803573ffffffffffffffffffffffffffffffffffffffff169060200190929190505050610acb565b604051808060200180602001838103835285818151815260200191508051906020019080838360005b8381101561039b578082015181840152602081019050610380565b50505050905090810190601f1680156103c85780820380516001836020036101000a031916815260200191505b50838103825284818151815260200191508051906020019080838360005b838110156104015780820151818401526020810190506103e6565b50505050905090810190601f16801561042e5780820380516001836020036101000a031916815260200191505b5094505050505060405180910390f35b6104806004803603602081101561045457600080fd5b81019080803573ffffffffffffffffffffffffffffffffffffffff169060200190929190505050610c1f565b6040518080602001806020018781526020018673ffffffffffffffffffffffffffffffffffffffff1673ffffffffffffffffffffffffffffffffffffffff1681526020018515151515815260200184151515158152602001838103835289818151815260200191508051906020019080838360005b838110156105105780820151818401526020810190506104f5565b50505050905090810190601f16801561053d5780820380516001836020036101000a031916815260200191505b50838103825288818151815260200191508051906020019080838360005b8381101561057657808201518184015260208101905061055b565b50505050905090810190601f1680156105a35780820380516001836020036101000a031916815260200191505b509850505050505050505060405180910390f35b600160003373ffffffffffffffffffffffffffffffffffffffff1673ffffffffffffffffffffffffffffffffffffffff16815260200190815260200160002060030160149054906101000a900460ff1661061057600080fd5b60018060003373ffffffffffffffffffffffffffffffffffffffff1673ffffffffffffffffffffffffffffffffffffffff16815260200190815260200160002060030160156101000a81548160ff0219169083151502179055506040518060400160405280838152602001828152506000803373ffffffffffffffffffffffffffffffffffffffff1673ffffffffffffffffffffffffffffffffffffffff16815260200190815260200160002060008201518160000190805190602001906106d9929190610dc5565b5060208201518160010190805190602001906106f6929190610dc5565b509050507f11d5ef29695a71b30dac4c57722f8d9d582e1730c597d48447909758a23bbfc1826040518080602001828103825283818151815260200191508051906020019080838360005b8381101561075c578082015181840152602081019050610741565b50505050905090810190601f1680156107895780820380516001836020036101000a031916815260200191505b509250505060405180910390a15050565b600160003373ffffffffffffffffffffffffffffffffffffffff1673ffffffffffffffffffffffffffffffffffffffff16815260200190815260200160002060030160149054906101000a900460ff1615610890577f3e6076325b72438d30348a8d7c4a035f740b38eca622ac468472f1bfffba7aee826040518080602001828103825283818151815260200191508051906020019080838360005b83811015610851578082015181840152602081019050610836565b50505050905090810190601f16801561087e5780820380516001836020036101000a031916815260200191505b509250505060405180910390a1610ac6565b6000826040516020018080602001828103825283818151815260200191508051906020019080838360005b838110156108d65780820151818401526020810190506108bb565b50505050905090810190601f1680156109035780820380516001836020036101000a031916815260200191505b50925050506040516020818303038152906040528051906020012090506040518060c001604052808581526020018481526020018281526020018373ffffffffffffffffffffffffffffffffffffffff16815260200160011515815260200160001515815250600160008473ffffffffffffffffffffffffffffffffffffffff1673ffffffffffffffffffffffffffffffffffffffff16815260200190815260200160002060008201518160000190805190602001906109c4929190610dc5565b5060208201518160010190805190602001906109e1929190610dc5565b506040820151816002015560608201518160030160006101000a81548173ffffffffffffffffffffffffffffffffffffffff021916908373ffffffffffffffffffffffffffffffffffffffff16021790555060808201518160030160146101000a81548160ff02191690831515021790555060a08201518160030160156101000a81548160ff0219169083151502179055509050508173ffffffffffffffffffffffffffffffffffffffff167f049b92fc8b96ede80f3a01762f21996d583b9662aeff50d4cc9ce03a08d1ec81826040518082815260200191505060405180910390a2505b505050565b6000602052806000526040600020600091509050806000018054600181600116156101000203166002900480601f016020809104026020016040519081016040528092919081815260200182805460018160011615610100020316600290048015610b775780601f10610b4c57610100808354040283529160200191610b77565b820191906000526020600020905b815481529060010190602001808311610b5a57829003601f168201915b505050505090806001018054600181600116156101000203166002900480601f016020809104026020016040519081016040528092919081815260200182805460018160011615610100020316600290048015610c155780601f10610bea57610100808354040283529160200191610c15565b820191906000526020600020905b815481529060010190602001808311610bf857829003601f168201915b5050505050905082565b6001602052806000526040600020600091509050806000018054600181600116156101000203166002900480601f016020809104026020016040519081016040528092919081815260200182805460018160011615610100020316600290048015610ccb5780601f10610ca057610100808354040283529160200191610ccb565b820191906000526020600020905b815481529060010190602001808311610cae57829003601f168201915b505050505090806001018054600181600116156101000203166002900480601f016020809104026020016040519081016040528092919081815260200182805460018160011615610100020316600290048015610d695780601f10610d3e57610100808354040283529160200191610d69565b820191906000526020600020905b815481529060010190602001808311610d4c57829003601f168201915b5050505050908060020154908060030160009054906101000a900473ffffffffffffffffffffffffffffffffffffffff16908060030160149054906101000a900460ff16908060030160159054906101000a900460ff16905086565b828054600181600116156101000203166002900490600052602060002090601f016020900481019282601f10610e0657805160ff1916838001178555610e34565b82800160010185558215610e34579182015b82811115610e33578251825591602001919060010190610e18565b5b509050610e419190610e45565b5090565b610e6791905b80821115610e63576000816000905550600101610e4b565b5090565b9056fea265627a7a72315820acee441676780709e4b23c381bf4a9cf213d8083183d93c374dee18df5c401c764736f6c63430005100032",
  "source": "pragma solidity ^0.5.0;\n\n///@title User Management Contract\n///@notice Manage user's signup and profile information\n///@dev store and update regular account and business account information\ncontract UserManagement {\n    \n    ///@notice general user information\n    ///@dev basic user information common among all accounts\n    struct User {\n        string userName;\n        string userEmail;\n        bytes32 userID;\n        address userWalletAddress;\n        bool activateAccount;\n        bool businessAccount;\n    }\n\n    struct BusinessUserData {\n        string companyName;\n        string companyDescription;\n    }\n\n    ///@dev map business user's address to their business info\n    mapping (address => BusinessUserData) public businessInfo;\n\n    //@dev map user address to their signup info\n    mapping (address => User) public users;\n\n    event newSignUP(address indexed _useraddress, bytes32 _userID);\n    event failedSignUp(string _email);\n    event newBusinessSignUp(string _companyname);\n\n    /// constructor!\n    // constructor () public{\n    // }\n\n    // modifier verifiedSignUpInfo(string memory _email)\n    // {\n    //     require(users[msg.sender].activateAccount == false);\n    //     _;\n    // }\n\n    function userSignUp(string memory _name, string memory _email, address _wallet) \n    public \n    {\n        if (users[msg.sender].activateAccount)\n        {\n            emit failedSignUp(_email);\n        }\n        else {\n            bytes32 userID = keccak256(abi.encode(_email));\n            users[_wallet] = User(_name, _email,userID,_wallet,true,false);\n            emit newSignUP(_wallet, userID);\n        }\n    }\n    \n    //@notice signup business users\n    //@dev add business info to an already registered user\n    function businessSignUp (string memory _companyname, string memory _companydescription)\n    public\n    {   \n        // users first should signup regularly \n        require(users[msg.sender].activateAccount);\n        users[msg.sender].businessAccount = true;\n        businessInfo[msg.sender] = BusinessUserData(_companyname, _companydescription);\n        emit newBusinessSignUp(_companyname);\n    }\n}\n",
  "sourcePath": "/home/at/phD/projects/Blockchain/projects/tara/contracts/UserManagement.sol",
  "compiler": {
    "name": "solc",
    "version": "0.5.16+commit.9c3226ce.Emscripten.clang"
  },
  "schemaVersion": "3.2.4",
  "updatedAt": "2020-11-16T22:05:43.693Z",
  "networkType": "ethereum",
  "devdoc": {
    "details": "store and update regular account and business account information",
    "methods": {},
    "title": "User Management Contract"
  },
  "userdoc": {
    "methods": {
      "userSignUp(string,string,address)": {
        "notice": "constructor!"
      }
    },
    "notice": "Manage user's signup and profile information"
  }
}