{
  "contractName": "UserManagement",
  "abi": [
    {
      "anonymous": false,
      "inputs": [
        {
          "indexed": false,
          "internalType": "string",
          "name": "_email",
          "type": "string"
        }
      ],
      "name": "failedSignUp",
      "type": "event"
    },
    {
      "anonymous": false,
      "inputs": [
        {
          "indexed": false,
          "internalType": "string",
          "name": "_companyname",
          "type": "string"
        }
      ],
      "name": "newBusinessSignUp",
      "type": "event"
    },
    {
      "anonymous": false,
      "inputs": [
        {
          "indexed": false,
          "internalType": "string",
          "name": "_username",
          "type": "string"
        },
        {
          "indexed": false,
          "internalType": "bytes32",
          "name": "_userID",
          "type": "bytes32"
        }
      ],
      "name": "newSignUP",
      "type": "event"
    },
    {
      "constant": true,
      "inputs": [
        {
          "internalType": "address",
          "name": "",
          "type": "address"
        }
      ],
      "name": "businessInfo",
      "outputs": [
        {
          "internalType": "string",
          "name": "companyName",
          "type": "string"
        },
        {
          "internalType": "string",
          "name": "companyDescription",
          "type": "string"
        }
      ],
      "payable": false,
      "stateMutability": "view",
      "type": "function"
    },
    {
      "constant": true,
      "inputs": [
        {
          "internalType": "address",
          "name": "",
          "type": "address"
        }
      ],
      "name": "users",
      "outputs": [
        {
          "internalType": "string",
          "name": "userName",
          "type": "string"
        },
        {
          "internalType": "string",
          "name": "userEmail",
          "type": "string"
        },
        {
          "internalType": "bytes32",
          "name": "userID",
          "type": "bytes32"
        },
        {
          "internalType": "uint256",
          "name": "userBirthDate",
          "type": "uint256"
        },
        {
          "internalType": "address",
          "name": "userWalletAddress",
          "type": "address"
        },
        {
          "internalType": "bool",
          "name": "activateAccount",
          "type": "bool"
        },
        {
          "internalType": "bool",
          "name": "businessAccount",
          "type": "bool"
        }
      ],
      "payable": false,
      "stateMutability": "view",
      "type": "function"
    },
    {
      "constant": false,
      "inputs": [
        {
          "internalType": "string",
          "name": "_name",
          "type": "string"
        },
        {
          "internalType": "string",
          "name": "_email",
          "type": "string"
        },
        {
          "internalType": "uint256",
          "name": "_dob",
          "type": "uint256"
        },
        {
          "internalType": "address",
          "name": "_wallet",
          "type": "address"
        }
      ],
      "name": "userSignUp",
      "outputs": [],
      "payable": false,
      "stateMutability": "nonpayable",
      "type": "function"
    },
    {
      "constant": false,
      "inputs": [
        {
          "internalType": "string",
          "name": "_companyname",
          "type": "string"
        },
        {
          "internalType": "string",
          "name": "_companydescription",
          "type": "string"
        }
      ],
      "name": "businessSignUp",
      "outputs": [],
      "payable": false,
      "stateMutability": "nonpayable",
      "type": "function"
    }
  ],
  "bytecode": "0x608060405234801561001057600080fd5b50610f1d806100206000396000f3fe608060405234801561001057600080fd5b506004361061004c5760003560e01c80630ef55c81146100515780636a0b05ea146101a35780637d62c0ed146102cc578063a87430ba14610448575b600080fd5b6101a16004803603604081101561006757600080fd5b810190808035906020019064010000000081111561008457600080fd5b82018360208201111561009657600080fd5b803590602001918460018302840111640100000000831117156100b857600080fd5b91908080601f016020809104026020016040519081016040528093929190818152602001838380828437600081840152601f19601f8201169050808301925050505050505091929192908035906020019064010000000081111561011b57600080fd5b82018360208201111561012d57600080fd5b8035906020019184600183028401116401000000008311171561014f57600080fd5b91908080601f016020809104026020016040519081016040528093929190818152602001838380828437600081840152601f19601f8201169050808301925050505050505091929192905050506105c8565b005b6101e5600480360360208110156101b957600080fd5b81019080803573ffffffffffffffffffffffffffffffffffffffff1690602001909291905050506107ab565b604051808060200180602001838103835285818151815260200191508051906020019080838360005b8381101561022957808201518184015260208101905061020e565b50505050905090810190601f1680156102565780820380516001836020036101000a031916815260200191505b50838103825284818151815260200191508051906020019080838360005b8381101561028f578082015181840152602081019050610274565b50505050905090810190601f1680156102bc5780820380516001836020036101000a031916815260200191505b5094505050505060405180910390f35b610446600480360360808110156102e257600080fd5b81019080803590602001906401000000008111156102ff57600080fd5b82018360208201111561031157600080fd5b8035906020019184600183028401116401000000008311171561033357600080fd5b91908080601f016020809104026020016040519081016040528093929190818152602001838380828437600081840152601f19601f8201169050808301925050505050505091929192908035906020019064010000000081111561039657600080fd5b8201836020820111156103a857600080fd5b803590602001918460018302840111640100000000831117156103ca57600080fd5b91908080601f016020809104026020016040519081016040528093929190818152602001838380828437600081840152601f19601f82011690508083019250505050505050919291929080359060200190929190803573ffffffffffffffffffffffffffffffffffffffff1690602001909291905050506108ff565b005b61048a6004803603602081101561045e57600080fd5b81019080803573ffffffffffffffffffffffffffffffffffffffff169060200190929190505050610c97565b6040518080602001806020018881526020018781526020018673ffffffffffffffffffffffffffffffffffffffff1673ffffffffffffffffffffffffffffffffffffffff168152602001851515151581526020018415151515815260200183810383528a818151815260200191508051906020019080838360005b83811015610520578082015181840152602081019050610505565b50505050905090810190601f16801561054d5780820380516001836020036101000a031916815260200191505b50838103825289818151815260200191508051906020019080838360005b8381101561058657808201518184015260208101905061056b565b50505050905090810190601f1680156105b35780820380516001836020036101000a031916815260200191505b50995050505050505050505060405180910390f35b600160003373ffffffffffffffffffffffffffffffffffffffff1673ffffffffffffffffffffffffffffffffffffffff16815260200190815260200160002060040160149054906101000a900460ff1661062157600080fd5b60018060003373ffffffffffffffffffffffffffffffffffffffff1673ffffffffffffffffffffffffffffffffffffffff16815260200190815260200160002060040160156101000a81548160ff0219169083151502179055506040518060400160405280838152602001828152506000803373ffffffffffffffffffffffffffffffffffffffff1673ffffffffffffffffffffffffffffffffffffffff16815260200190815260200160002060008201518160000190805190602001906106ea929190610e43565b506020820151816001019080519060200190610707929190610e43565b509050507f11d5ef29695a71b30dac4c57722f8d9d582e1730c597d48447909758a23bbfc1826040518080602001828103825283818151815260200191508051906020019080838360005b8381101561076d578082015181840152602081019050610752565b50505050905090810190601f16801561079a5780820380516001836020036101000a031916815260200191505b509250505060405180910390a15050565b6000602052806000526040600020600091509050806000018054600181600116156101000203166002900480601f0160208091040260200160405190810160405280929190818152602001828054600181600116156101000203166002900480156108575780601f1061082c57610100808354040283529160200191610857565b820191906000526020600020905b81548152906001019060200180831161083a57829003601f168201915b505050505090806001018054600181600116156101000203166002900480601f0160208091040260200160405190810160405280929190818152602001828054600181600116156101000203166002900480156108f55780601f106108ca576101008083540402835291602001916108f5565b820191906000526020600020905b8154815290600101906020018083116108d857829003601f168201915b5050505050905082565b600160003373ffffffffffffffffffffffffffffffffffffffff1673ffffffffffffffffffffffffffffffffffffffff16815260200190815260200160002060040160149054906101000a900460ff16156109f5577f3e6076325b72438d30348a8d7c4a035f740b38eca622ac468472f1bfffba7aee836040518080602001828103825283818151815260200191508051906020019080838360005b838110156109b657808201518184015260208101905061099b565b50505050905090810190601f1680156109e35780820380516001836020036101000a031916815260200191505b509250505060405180910390a1610c91565b6000836040516020018080602001828103825283818151815260200191508051906020019080838360005b83811015610a3b578082015181840152602081019050610a20565b50505050905090810190601f168015610a685780820380516001836020036101000a031916815260200191505b50925050506040516020818303038152906040528051906020012090506040518060e001604052808681526020018581526020018281526020018481526020018373ffffffffffffffffffffffffffffffffffffffff16815260200160011515815260200160001515815250600160008473ffffffffffffffffffffffffffffffffffffffff1673ffffffffffffffffffffffffffffffffffffffff1681526020019081526020016000206000820151816000019080519060200190610b2f929190610e43565b506020820151816001019080519060200190610b4c929190610e43565b50604082015181600201556060820151816003015560808201518160040160006101000a81548173ffffffffffffffffffffffffffffffffffffffff021916908373ffffffffffffffffffffffffffffffffffffffff16021790555060a08201518160040160146101000a81548160ff02191690831515021790555060c08201518160040160156101000a81548160ff0219169083151502179055509050507f77e786f03dc9e483b35741210af2b8ce2ed0c6f04ab35df2c4ac04267cbff65785826040518080602001838152602001828103825284818151815260200191508051906020019080838360005b83811015610c54578082015181840152602081019050610c39565b50505050905090810190601f168015610c815780820380516001836020036101000a031916815260200191505b50935050505060405180910390a1505b50505050565b6001602052806000526040600020600091509050806000018054600181600116156101000203166002900480601f016020809104026020016040519081016040528092919081815260200182805460018160011615610100020316600290048015610d435780601f10610d1857610100808354040283529160200191610d43565b820191906000526020600020905b815481529060010190602001808311610d2657829003601f168201915b505050505090806001018054600181600116156101000203166002900480601f016020809104026020016040519081016040528092919081815260200182805460018160011615610100020316600290048015610de15780601f10610db657610100808354040283529160200191610de1565b820191906000526020600020905b815481529060010190602001808311610dc457829003601f168201915b5050505050908060020154908060030154908060040160009054906101000a900473ffffffffffffffffffffffffffffffffffffffff16908060040160149054906101000a900460ff16908060040160159054906101000a900460ff16905087565b828054600181600116156101000203166002900490600052602060002090601f016020900481019282601f10610e8457805160ff1916838001178555610eb2565b82800160010185558215610eb2579182015b82811115610eb1578251825591602001919060010190610e96565b5b509050610ebf9190610ec3565b5090565b610ee591905b80821115610ee1576000816000905550600101610ec9565b5090565b9056fea265627a7a723158201fabba5df0c3462c75c7c0dd89143421e704789c697fcfe0cfd9c1bababe811964736f6c63430005100032",
  "source": "pragma solidity ^0.5.0;\n\n///@title User Management Contract\n///@notice Manage user's signup and profile information\n///@dev store and update regular account and business account information\ncontract UserManagement {\n    \n    ///@notice general user information\n    ///@dev basic user information common among all accounts\n    struct User {\n        string userName;\n        string userEmail;\n        bytes32 userID;\n        uint userBirthDate;\n        address userWalletAddress;\n        bool activateAccount;\n        bool businessAccount;\n    }\n\n    struct BusinessUserData {\n        string companyName;\n        string companyDescription;\n    }\n\n    ///@dev map business user's address to their business info\n    mapping (address => BusinessUserData) public businessInfo;\n\n    //@dev map user address to their signup info\n    mapping (address => User) public users;\n\n    event newSignUP(string _username, bytes32 _userID);\n    event failedSignUp(string _email);\n    event newBusinessSignUp(string _companyname);\n\n\n    /// constructor!\n    // constructor () public{\n    // }\n\n    // modifier verifiedSignUpInfo(string memory _email)\n    // {\n    //     require(users[msg.sender].activateAccount == false);\n    //     _;\n    // }\n\n    function userSignUp(string memory _name, string memory _email, uint _dob, address _wallet) \n    public \n    {\n        if (users[msg.sender].activateAccount)\n        {\n            emit failedSignUp(_email);\n        }\n        else {\n            bytes32 userID = keccak256(abi.encode(_email));\n            users[_wallet] = User(_name, _email,userID,_dob,_wallet,true,false);\n            emit newSignUP(_name, userID);\n        }\n    }\n    \n    //@notice signup business users\n    //@dev add business info to an already registered user\n    function businessSignUp (string memory _companyname, string memory _companydescription)\n    public\n    {   \n        // users first should signup regularly \n        require(users[msg.sender].activateAccount);\n        users[msg.sender].businessAccount = true;\n        businessInfo[msg.sender] = BusinessUserData(_companyname, _companydescription);\n        emit newBusinessSignUp(_companyname);\n    }\n}\n",
  "sourcePath": "/home/at/phD/projects/Blockchain/projects/tara/contracts/UserManagement.sol",
  "compiler": {
    "name": "solc",
    "version": "0.5.16+commit.9c3226ce.Emscripten.clang"
  },
  "schemaVersion": "3.2.4",
  "updatedAt": "2020-11-13T01:47:04.666Z",
  "devdoc": {
    "details": "store and update regular account and business account information",
    "methods": {},
    "title": "User Management Contract"
  },
  "userdoc": {
    "methods": {
      "userSignUp(string,string,uint256,address)": {
        "notice": "constructor!"
      }
    },
    "notice": "Manage user's signup and profile information"
  }
}