{
  "contractName": "UserManagemet",
  "abi": [
    {
      "constant": false,
      "inputs": [
        {
          "internalType": "bytes32",
          "name": "_name",
          "type": "bytes32"
        },
        {
          "internalType": "bytes32",
          "name": "_password",
          "type": "bytes32"
        },
        {
          "internalType": "string",
          "name": "_email",
          "type": "string"
        },
        {
          "internalType": "uint256",
          "name": "_dob",
          "type": "uint256"
        },
        {
          "internalType": "address",
          "name": "_wallet",
          "type": "address"
        }
      ],
      "name": "userSignUp",
      "outputs": [],
      "payable": true,
      "stateMutability": "payable",
      "type": "function"
    }
  ],
  "bytecode": "0x608060405234801561001057600080fd5b50610487806100206000396000f3fe60806040526004361061001e5760003560e01c80633952864c14610023575b600080fd5b61011a600480360360a081101561003957600080fd5b8101908080359060200190929190803590602001909291908035906020019064010000000081111561006a57600080fd5b82018360208201111561007c57600080fd5b8035906020019184600183028401116401000000008311171561009e57600080fd5b91908080601f016020809104026020016040519081016040528093929190818152602001838380828437600081840152601f19601f82011690508083019250505050505050919291929080359060200190929190803573ffffffffffffffffffffffffffffffffffffffff16906020019092919050505061011c565b005b826000151560016000836040516020018080602001828103825283818151815260200191508051906020019080838360005b8381101561016957808201518184015260208101905061014e565b50505050905090810190601f1680156101965780820380516001836020036101000a031916815260200191505b509250505060405160208183030381529060405280519060200120815260200190815260200160002060050160149054906101000a900460ff161515146101dc57600080fd5b6000846040516020018080602001828103825283818151815260200191508051906020019080838360005b83811015610222578082015181840152602081019050610207565b50505050905090810190601f16801561024f5780820380516001836020036101000a031916815260200191505b50925050506040516020818303038152906040528051906020012090506040518061010001604052808881526020018781526020018681526020018281526020018581526020018473ffffffffffffffffffffffffffffffffffffffff1681526020016001151581526020016000151581525060016000838152602001908152602001600020600082015181600001556020820151816001015560408201518160020190805190602001906103059291906103ad565b50606082015181600301556080820151816004015560a08201518160050160006101000a81548173ffffffffffffffffffffffffffffffffffffffff021916908373ffffffffffffffffffffffffffffffffffffffff16021790555060c08201518160050160146101000a81548160ff02191690831515021790555060e08201518160050160156101000a81548160ff02191690831515021790555090505050505050505050565b828054600181600116156101000203166002900490600052602060002090601f016020900481019282601f106103ee57805160ff191683800117855561041c565b8280016001018555821561041c579182015b8281111561041b578251825591602001919060010190610400565b5b509050610429919061042d565b5090565b61044f91905b8082111561044b576000816000905550600101610433565b5090565b9056fea265627a7a723158202bd9cc611c12821c74d1253a790182065c21af7188ea3f0213b30db8b9d6226c64736f6c63430005100032",
  "source": "pragma solidity ^0.5.0;\n\n///@title User Management Contract\n///@notice Manage user's signup and profile information\n///@dev store and update regular account and business account information\ncontract UserManagemet {\n    \n    ///@notice general user information\n    ///@dev basic user information common among all accounts\n    struct User {\n        bytes32 userName;\n        bytes32 password;\n        string userEmail;\n        bytes32 userID;\n        uint userBirthDate;\n        address userWalletAddress;\n        bool activateAccount;\n        bool businessAccount;\n    }\n\n    struct BusinessUserData {\n        bytes32 companyName;\n        string companyDescription;\n    }\n\n    ///@dev map business user's IDs to their business info\n    mapping (bytes32 => BusinessUserData) businessInfo;\n\n    //@dev map user emails to their signup info\n    mapping (bytes32 => User) users;\n\n    /// constructor!\n    // constructor () public{\n    // }\n\n    modifier verifiedSignUpInfo(string memory _email)\n    {\n        require(users[keccak256(abi.encode(_email))].activateAccount == false);\n          //ToDo emit failed signup\n        _;\n    }\n\n    function userSignUp(bytes32 _name, bytes32 _password, string memory _email, uint _dob, address _wallet) \n    payable public verifiedSignUpInfo(_email) \n    {\n        bytes32 userID = keccak256(abi.encode(_email));\n        users[userID] = User(_name,_password, _email,userID,_dob,_wallet,true,false);\n    }\n       \n\n}",
  "sourcePath": "/home/at/phD/projects/Blockchain/projects/tara/contracts/UserManagement.sol",
  "compiler": {
    "name": "solc",
    "version": "0.5.16+commit.9c3226ce.Emscripten.clang"
  },
  "schemaVersion": "3.2.4",
  "updatedAt": "2020-11-12T02:41:23.579Z",
  "devdoc": {
    "details": "store and update regular account and business account information",
    "methods": {},
    "title": "User Management Contract"
  },
  "userdoc": {
    "methods": {},
    "notice": "Manage user's signup and profile information"
  }
}